:100000000C9435000C945D000C945D000C945D0024
:100010000C945D000C945D000C945D000C945D00EC
:100020000C945D000C945D000C945D000C945D00DC
:100030000C945D000C945D000C945D000C945D00CC
:100040000C9484000C945D000C9461010C94AF013D
:100050000C945D000C945D000C945D000C945D00AC
:100060000C945D000C945D001B0311241FBECFEFA8
:10007000D8E0DEBFCDBF11E0A0E0B1E0EAE0FAE0F9
:1000800002C005900D92A631B107D9F711E0A6E1A3
:10009000B1E001C01D92A93CB107E1F710E0CAE64A
:1000A000D0E004C02297FE010E94FF04C836D107A9
:1000B000C9F70E94AD040C945F000C940000F89402
:1000C0000C94030587EA91E065E070E04AE050E0B7
:1000D0000E947B0468EE73E080E090E00E94CC0018
:1000E00008950F931F9307EA11E0C80140E855E215
:1000F00060E070E00E94EA01C80160E071E00E94E7
:100100009A041F910F9108951F920F920FB60F92AC
:1001100011242F933F938F939F93AF93BF9380911D
:100120001A0190911B01A0911C01B0911D01309109
:100130001E010196A11DB11D232F2D5F2D3720F02B
:100140002D570196A11DB11D20931E0180931A0108
:1001500090931B01A0931C01B0931D018091160187
:1001600090911701A0911801B09119010196A11D5C
:10017000B11D8093160190931701A0931801B093BD
:100180001901BF91AF919F918F913F912F910F9046
:100190000FBE0F901F9018959B01AC017FB7F8948C
:1001A0008091160190911701A0911801B091190149
:1001B00066B5A89B05C06F3F19F00196A11DB11D42
:1001C0007FBFBA2FA92F982F8827860F911DA11DB9
:1001D000B11D62E0880F991FAA1FBB1F6A95D1F756
:1001E000BC012DC0FFB7F8948091160190911701C2
:1001F000A0911801B0911901E6B5A89B05C0EF3F89
:1002000019F00196A11DB11DFFBFBA2FA92F982F7C
:1002100088278E0F911DA11DB11DE2E0880F991F47
:10022000AA1FBB1FEA95D1F7861B970B885E9340E8
:10023000C8F2215030404040504068517C4F211559
:1002400031054105510571F60895789484B58260B1
:1002500084BD84B5816084BD85B5826085BD85B56A
:10026000816085BDEEE6F0E0808181608083E1E819
:10027000F0E0108280818260808380818160808351
:10028000E0E8F0E0808181608083E1EBF0E0808154
:1002900084608083E0EBF0E0808181608083EAE726
:1002A000F0E08081846080838081826080838081AF
:1002B000816080838081806880831092C10008956E
:1002C00008951F920F920FB60F9211242F933F9310
:1002D0004F938F939F93EF93FF938091C00082FD84
:1002E0001DC04091C60020915F01309160012F5FD9
:1002F0003F4F2F73307080916101909162012817F8
:10030000390771F0E0915F01F0916001E15EFE4F0D
:1003100040833093600120935F0102C08091C6004A
:10032000FF91EF919F918F914F913F912F910F905E
:100330000FBE0F901F901895E091B301F091B4019A
:10034000E05CFF4F8191919120813181821B930B61
:100350008F739070892B11F00E94600108951F9295
:100360000F920FB60F9211242F933F938F939F9369
:10037000EF93FF932091A3013091A4018091A501F7
:100380009091A6012817390731F48091C1008F7D23
:100390008093C10014C0E091A501F091A601ED5930
:1003A000FE4F20818091A5019091A60101968F7347
:1003B00090709093A6018093A5012093C600FF91B1
:1003C000EF919F918F913F912F910F900FBE0F90C2
:1003D0001F901895AF92BF92DF92EF92FF920F930A
:1003E0001F93CF93DF93EC017A018B01DD24403022
:1003F00081EE580780E0680780E0780711F0DD247F
:10040000D39491E0A92EB12CEC89FD89DD2069F00F
:10041000C50108A002C0880F991F0A94E2F78083E3
:1004200060E079E08DE390E005C0108260E874E858
:100430008EE190E0A80197010E94DB04215030403A
:1004400040405040569547953795279580E120309C
:10045000380720F0DD2011F0DD24D6CFE889F989B6
:100460003083EA89FB89208319A2EE89FF894081C4
:1004700021E030E0C9010C8C02C0880F991F0A945A
:10048000E2F7482B4083EE89FF894081C9010D8C3A
:1004900002C0880F991F0A94E2F7482B4083EE8927
:1004A000FF894081C9010E8C02C0880F991F0A94F0
:1004B000E2F7482B4083EE89FF8980810F8C02C0D0
:1004C000220F331F0A94E2F7209528232083DF911F
:1004D000CF911F910F91FF90EF90DF90BF90AF9061
:1004E0000895DC011C96ED91FC911D97E05CFF4F97
:1004F0002191319180819181281B390B2F733070AC
:10050000C9010895DC011C96ED91FC911D97E05CFA
:10051000FF4F20813181E054F040DF01AE5BBF4FDF
:100520008D919C9111972817390719F42FEF3FEF00
:1005300007C08D919C91E80FF91F8081282F30E032
:10054000C9010895DC011C96ED91FC911D97E05CBA
:10055000FF4F20813181E054F040DF01AE5BBF4F9F
:100560008D919C9111972817390719F42FEF3FEFC0
:1005700010C08D919C911197E80FF91F20818D91EA
:100580009C91119701968F73907011969C938E9306
:1005900030E0C9010895DC0191968C9191978823F0
:1005A00039F05496ED91FC915597808186FFF9CFF3
:1005B00091961C920895CF93DF93EC01EE85FF8511
:1005C000E05CFF4F20813181E054F0402F5F3F4FCE
:1005D0002F733070DF01AE5BBF4F8D919C911197EF
:1005E00028173907D1F3E05CFF4F80819181E054F7
:1005F000F040E80FF91F6083EE85FF85E05CFF4F58
:1006000031832083EE89FF89208181E090E00F8C87
:1006100002C0880F991F0A94E2F7282B208381E0FB
:1006200089A3EC89FD8980818064808381E090E0EA
:10063000DF91CF9108951092AA011092A90188EE3E
:1006400093E0A0E0B0E08093AB019093AC01A09365
:10065000AD01B093AE018AE091E09093A801809340
:10066000A7018FE191E09093B4018093B30183E6F9
:1006700091E09093B6018093B50185EC90E0909362
:10068000B8018093B70184EC90E09093BA01809315
:10069000B90180EC90E09093BC018093BB0181ECA8
:1006A00090E09093BE018093BD0182EC90E0909326
:1006B000C0018093BF0186EC90E09093C2018093CB
:1006C000C10184E08093C30183E08093C40187E08B
:1006D0008093C50185E08093C60181E08093C701C6
:1006E0000895CF92DF92EF92FF920F931F93CF93D3
:1006F000DF937C016B018A01C0E0D0E00FC0D6011E
:100700006D916D01D701ED91FC910190F081E02D8B
:10071000C7010995C80FD91F0150104001151105D7
:1007200071F7CE01DF91CF911F910F91FF90EF9064
:10073000DF90CF900895EF92FF920F931F938C015B
:10074000DC01ED91FC910190F081E02D6DE00995C7
:100750007C01D801ED91FC910190F081E02DC80160
:100760006AE009959C012E0D3F1DC9011F910F9153
:10077000FF90EF900895CF93DF93EC016115710521
:1007800019F420E030E00FC0DB010D900020E9F704
:100790001197A61BB70BE881F9810280F381E02D48
:1007A000AD0109959C01C901DF91CF9108954F9248
:1007B0005F927F928F929F92AF92BF92CF92DF9281
:1007C000EF92FF920F931F93DF93CF93CDB7DEB7D6
:1007D000A1970FB6F894DEBF0FBECDBF2C01742ECB
:1007E000CB01223008F42AE019A231E2C32ED12C29
:1007F000CC0EDD1E822E9924AA24BB24672D752FD2
:10080000A50194010E94DB0479018A01C801B701A6
:10081000A50194010E94BC04472D461B0894C10801
:10082000D1084A3014F4405D01C0495CF6014083B0
:10083000E114F1040105110521F07E2C5F2DC801A2
:10084000DDCFC201B6010E94BB03A1960FB6F8949A
:10085000DEBF0FBECDBFCF91DF911F910F91FF90F3
:10086000EF90DF90CF90BF90AF909F908F907F9050
:100870005F904F900895CF92DF92EF92FF920F9387
:100880001F93CF93DF93EC016A017B0121153105A2
:1008900041F4E881F9810190F081E02D642F099500
:1008A0001FC02A303105D1F477FF17C0E881F981E4
:1008B0000190F081E02D6DE209958C0144275527C8
:1008C000BA014C195D096E097F09CE012AE00E9428
:1008D000D7039801280F391F04C02AE00E94D703CC
:1008E0009C01C901DF91CF911F910F91FF90EF9073
:1008F000DF90CF900895CF92DF92EF92FF920F9307
:100900001F936C017B019A010027F7FC0095102FC3
:10091000B801A7010E943B048C01C6010E949B0301
:10092000080F191FC8011F910F91FF90EF90DF90E2
:10093000CF900895EF92FF920F931F937C010E9436
:10094000BB038C01C7010E949B03080F191FC8013C
:100950001F910F91FF90EF900895CF93DF930E9426
:1009600025010E947100CCE9D1E00E94620020972D
:10097000E1F30E949C01F9CF629FD001739FF001C7
:10098000829FE00DF11D649FE00DF11D929FF00D1F
:10099000839FF00D749FF00D659FF00D9927729F56
:1009A000B00DE11DF91F639FB00DE11DF91FBD01E1
:1009B000CF0111240895A1E21A2EAA1BBB1BFD0131
:1009C0000DC0AA1FBB1FEE1FFF1FA217B307E4072E
:1009D000F50720F0A21BB30BE40BF50B661F771F86
:1009E000881F991F1A9469F7609570958095909566
:1009F0009B01AC01BD01CF010895EE0FFF1F0590D3
:0A0A0000F491E02D0994F894FFCF63
:100A0A0048656C6C6F0000000000DB027103710224
:060A1A00A2028202CB02E1
:00000001FF
