:100000000C9434000C9449000C9449000C94490061
:100010000C9449000C9449000C9449000C9449003C
:100020000C9449000C9449000C9449000C9449002C
:100030000C9449000C9449000C9449000C9449001C
:100040000C9449000C9449000C9449000C9449000C
:100050000C9449000C9449000C9449000C944900FC
:100060000C9449000C94490011241FBECFEFD8E036
:10007000DEBFCDBF11E0A0E0B1E0E4EEF0E002C0F1
:1000800005900D92AC32B107D9F70E9453000C9441
:1000900070000C940000FC012191CF01222311F08B
:1000A00020B9F9CF0895CF93DF931F92CDB7DEB774
:1000B00080E091E00E944B0082B189838DE191E064
:1000C0000E944B00898180B982B189838A30D1F73F
:1000D00080B980B980E090E00F90DF91CF910895D2
:0400E000F894FFCFC2
:1000E4000A507265737320616E79206B65792061A3
:1000F4006E6420656E7465723A0A3E20000A596F78
:0C0104007520656E74657265643A200019
:00000001FF
