:100000000C9434000C9451000C9451000C94510049
:100010000C9451000C9451000C9451000C9451001C
:100020000C9451000C9451000C9451000C9451000C
:100030000C9451000C9451000C9451000C945100FC
:100040000C9451000C9451000C9451000C945100EC
:100050000C9451000C9451000C9451000C945100DC
:100060000C9451000C94510011241FBECFEFD8E026
:10007000DEBFCDBF11E0A0E0B1E0EAE1F2E002C0F6
:1000800005900D92A230B107D9F711E0A2E0B1E0DE
:1000900001C01D92A230B107E1F70E9487000C94C5
:1000A00053000C940000F8940C940B01FB019F0189
:1000B000E8944230C4F04532B4F44A3029F497FB56
:1000C0001EF4909581959F4F642F77270E94F7002B
:1000D000805D8A330CF0895D8193CB010097A1F795
:1000E00016F45DE251931082C9010C947700DC0193
:1000F000FC01672F71917723E1F7329704C07C915F
:100100006D9370836291AE17BF07C8F30895BF92D5
:10011000CF92DF92EF92FF920F931F93DF93CF93D3
:10012000CDB7DEB72A970FB6F894DEBF0FBECDBFAE
:100130001092C50087E68093C40088E18093C100D7
:1001400086E08093C20080917C00806480937C0074
:1001500080917A00806C80937A0090E4B92E7E01C1
:100160000894E11CF11C80E9C82E81E0D82EB092E1
:100170007C0080917A008F7E80937A0080917A0053
:10018000806480937A0080917A0084FFFCCF909104
:10019000780080917900182F00E09801290F311D17
:1001A000C901B7014AE050E00E945600F70107C0BC
:1001B0008091C00085FFFCCF9093C600319690815E
:1001C0009923B1F7E0E0F1E007C08091C00085FF1E
:1001D000FCCF9093C600319690819923B1F788E8BF
:1001E00093E1F6013197F1F70197D9F7C0CFAA1B38
:1001F000BB1B51E107C0AA1FBB1FA617B70710F012
:10020000A61BB70B881F991F5A95A9F78095909543
:0A021000BC01CD010895F894FFCF62
:02021A000A00D8
:00000001FF
