:100000000C9472000C9494000C9494000C94940042
:100010000C9494000C9494000C9494000C94940010
:100020000C9494000C9494000C9494000C94940000
:100030000C9494000C9494000C9494000C949400F0
:100040000C9494000C9494000C9494000C949400E0
:100050000C9494000C9494000C9494000C949400D0
:100060000C9494000C9494000C9494000C949400C0
:100070000C9494000C9494000C9494000C949400B0
:100080000C9494000C9494000C9494000C949400A0
:100090000C9494000C9494000C9494000C94940090
:1000A0000C9494000C9494000C9494000C94940080
:1000B0000C9494000C9494000C9494000C94940070
:1000C0000C9494000C9494000C9494000C94940060
:1000D0000C9494000C9494000C9494000C94940050
:1000E0000C94940011241FBECFEFD1E2DEBFCDBF30
:1000F00000E00CBF12E0A0E0B2E0E6E0F2E000E0D9
:100100000BBF02C007900D92A630B107D9F71BBEF6
:1001100012E0A6E0B2E001C01D92A630B107E1F7FF
:100120000E94C7000C9496000C940000F8940C9464
:1001300001019C01442737FD4095542F84E0220F94
:10014000331F441F551F8A95D1F760E074E284EF96
:1001500090E00E94DF0021503040C9010895909343
:10016000C5008093C40088E98093C10086E0809335
:10017000C2000895FC0107C08091C00085FFFCCF3C
:100180009093C600319690819923B1F7089580E845
:1001900095E20E9499000E94AF0080E092E00E94E8
:1001A000BA00279A20E931E085B1805885B980E10D
:1001B00097E2F9013197F1F70197D9F7F5CFA1E26D
:1001C0001A2EAA1BBB1BFD010DC0AA1FBB1FEE1FD1
:1001D000FF1FA217B307E407F50720F0A21BB30B1C
:1001E000E40BF50B661F771F881F991F1A9469F798
:1001F00060957095809590959B01AC01BD01CF01F4
:060200000895F894FFCF01
:0602060048656C6C6F00FE
:00000001FF
