:100000000C9434000C9451000C9451000C94510049
:100010000C9451000C9451000C9451000C9451001C
:100020000C9451000C9451000C9451000C9451000C
:100030000C9451000C9451000C9451000C945100FC
:100040000C9451000C9451000C9451000C945100EC
:100050000C9451000C9451000C9451000C945100DC
:100060000C9451000C94510011241FBECFEFD8E026
:10007000DEBFCDBF11E0A0E0B1E0E8E9F2E002C0F0
:1000800005900D92AA30B107D9F711E0AAE0B1E0CE
:1000900001C01D92AA30B107E1F70E9487000C94BD
:1000A00053000C940000F8940C944A01FB019F014A
:1000B000E8944230C4F04532B4F44A3029F497FB56
:1000C0001EF4909581959F4F642F77270E9414010D
:1000D000805D8A330CF0895D8193CB010097A1F795
:1000E00016F45DE251931082C9010C947700DC0193
:1000F000FC01672F71917723E1F7329704C07C915F
:100100006D9370836291AE17BF07C8F30895EF92A5
:10011000FF920F931F93DF93CF93CDB7DEB72A974C
:100120000FB6F894DEBF0FBECDBF80E895E20E9407
:10013000E6000E94FC0080E091E00E9407010E941E
:10014000C0008E010F5F1F4F80E9E82E81E0F82E7E
:1001500080E090E00E94CB00B8014AE050E00E94AD
:100160005600C8010E94070188E091E00E94070143
:1001700088E893E1F7013197F1F70197D9F7E8CFD4
:10018000ECE7F0E0808180648083EAE7F0E0808142
:10019000806C80830895806480937C0080917A00D5
:1001A0008F7E80937A0080917A00806480937A00B9
:1001B00080917A0084FFFCCF909178008091790043
:1001C000382F20E0290F311DC90108959C014427D3
:1001D00037FD4095542F84E0220F331F441F551FD5
:1001E0008A95D1F760E074E284EF90E00E942801E4
:1001F00021503040C90108959093C5008093C400F8
:1002000088E18093C10086E08093C2000895FC01DC
:1002100007C08091C00085FFFCCF9093C600319647
:1002200090819923B1F70895AA1BBB1B51E107C028
:10023000AA1FBB1FA617B70710F0A61BB70B881F76
:10024000991F5A95A9F780959095BC01CD01089505
:10025000A1E21A2EAA1BBB1BFD010DC0AA1FBB1FCA
:10026000EE1FFF1FA217B307E407F50720F0A21B3C
:10027000B30BE40BF50B661F771F881F991F1A94A9
:1002800069F760957095809590959B01AC01BD01D3
:08029000CF010895F894FFCF9F
:0A02980048656C6C6F210A000A0033
:00000001FF
