:100000000C9434000C9451000C9451000C94510049
:100010000C9451000C9451000C9451000C9451001C
:100020000C9451000C9451000C9451000C9451000C
:100030000C9451000C9451000C9451000C945100FC
:100040000C9451000C9451000C9462000C945100DB
:100050000C9451000C9451000C9451000C945100DC
:100060000C9451000C94510011241FBECFEFD8E026
:10007000DEBFCDBF11E0A0E0B1E0E2EDF1E002C0F3
:1000800005900D92A830B107D9F711E0A8E0B1E0D2
:1000900001C01D92A830B107E1F70E9456000C94F0
:1000A00053000C940000F8940C94E70080E895E26B
:1000B0000E9488000E949E0080E091E00E94B800AB
:1000C0007894FFCF1F920F920FB60F9211242F93A7
:1000D0003F934F935F936F937F938F939F93AF93D0
:1000E000BF93EF93FF930E94B1000E94A900FF917C
:1000F000EF91BF91AF919F918F917F916F915F91A0
:100100004F913F912F910F900FBE0F901F90189518
:100110009C01442737FD4095542F84E0220F331F64
:10012000441F551F8A95D1F760E074E284EF90E098
:100130000E94C50021503040C90108959093C50028
:100140008093C40088E98093C10086E08093C20058
:100150000895982F8091C00085FFFCCF9093C60032
:1001600008958091C00087FFFCCF8091C60008955C
:10017000FC0107C08091C00085FFFCCF9093C600B2
:10018000319690819923B1F70895A1E21A2EAA1B06
:10019000BB1BFD010DC0AA1FBB1FEE1FFF1FA21737
:1001A000B307E407F50720F0A21BB30BE40BF50B34
:1001B000661F771F881F991F1A9469F760957095BD
:1001C000809590959B01AC01BD01CF010895F894F5
:0201D000FFCF5F
:0801D20048656C6C6F210A0006
:00000001FF
