:100000000C9434000C9451000C9451000C94510049
:100010000C9451000C9451000C9451000C9451001C
:100020000C9451000C9451000C9451000C9451000C
:100030000C9451000C9451000C9451000C945100FC
:100040000C9451000C9451000C9451000C945100EC
:100050000C9451000C9451000C9451000C945100DC
:100060000C9451000C94510011241FBECFEFD8E026
:10007000DEBFCDBF11E0A0E0B1E0EEE7F1E002C0ED
:1000800005900D92A830B107D9F711E0A8E0B1E0D2
:1000900001C01D92A830B107E1F70E9484000C94C2
:1000A00053000C940000F8940C94BD0088EE9DEF72
:1000B000909387008093860020E030E040E951E093
:1000C000309389002093880080ED97E0FA01319702
:1000D000F1F70197D9F72C59364E8DEF283E3807A6
:1000E00079F728EE3DEF40E951E030938900209305
:1000F000880080ED97E0FA013197F1F70197D9F781
:100100002456394191F70895259A1092C50087E643
:100110008093C40088E18093C10086E08093C20090
:10012000A0E0B1E0FD0107C08091C00085FFFCCFD9
:100130009093C600319690819923B1F707C08091C2
:10014000C00085FFFCCF9093C60011969C91992327
:10015000B1F7219A82E88093800089E18093810041
:1001600088EE9DEF9093870080938600909389009E
:0E017000809388000E945600FDCFF894FFCFC8
:08017E0048656C6C6F0A00007B
:00000001FF
