:100000000C9434000C9451000C9451000C94510049
:100010000C9451000C9451000C9451000C9451001C
:100020000C9451000C9451000C9451000C9451000C
:100030000C9451000C9451000C9451000C945100FC
:100040000C9451000C9451000C9451000C945100EC
:100050000C9451000C9451000C9451000C945100DC
:100060000C9451000C94510011241FBECFEFD8E026
:10007000DEBFCDBF11E0A0E0B1E0E8EFF0E002C0EC
:1000800005900D92AE30B107D9F711E0AEE0B1E0C6
:1000900001C01D92AE30B107E1F70E9456000C94EA
:1000A00053000C940000F8940C947A001092C50050
:1000B00087E68093C40088E18093C10086E0809346
:1000C000C200E0E0F1E020E931E007C08091C0002B
:1000D00085FFFCCF9093C600319690819923B1F7AC
:1000E00080E593ECF9013197F1F70197D9F7E0E05A
:0800F000F1E0F3CFF894FFCF1B
:0E00F80048656C6C6F20776F726C642121007C
:00000001FF
