:100000000C9461000C947E000C947E000C947E0095
:100010000C947E000C947E000C947E000C947E0068
:100020000C947E000C947E000C947E000C947E0058
:100030000C947E000C947E000C947E000C947E0048
:100040000C94C5000C947E000C947E000C947E00F1
:100050000C947E000C947E000C947E000C947E0028
:100060000C947E000C947E00000000002400270009
:100070002A0000000000250028002B0000000000DE
:1000800023002600290004040404040404040202DA
:100090000202020203030303030301020408102007
:1000A0004080010204081020010204081020000012
:1000B0000007000201000003040600000000000029
:1000C000000011241FBECFEFD8E0DEBFCDBF11E08E
:1000D000A0E0B1E0EEE4F9E002C005900D92AE318F
:1000E000B107D9F711E0AEE1B1E001C01D92A7322E
:1000F000B107E1F70E9483000C9480000C9400008B
:10010000F8940C94A504AF92BF92CF92EF920F9304
:10011000DF93CF93CDB7DEB765970FB6F894DEBF08
:100120000FBECDBF5E010894A11CB11CC5016CE0DF
:100130004BE025E004E053E0E52E32E0C32E0E94C0
:100140009803C50160E142E020E00E94E202C5019F
:1001500060E071E00E94DE010A2DAB2C802F9A2D09
:1001600060E041E00E94AB020E940D0128EE33E006
:1001700040E050E00E948304802F9A2DBA01A9012B
:100180002AE030E00E94CF01E9CF1F920F920FB614
:100190000F9211242F933F938F939F93AF93BF930D
:1001A0008091220190912301A0912401B091250119
:1001B000309126010196A11DB11D232F2D5F2D37F2
:1001C00020F02D570196A11DB11D2093260180938B
:1001D000220190932301A0932401B09325018091E3
:1001E0001E0190911F01A0912001B0912101019663
:1001F000A11DB11D80931E0190931F01A0932001AA
:10020000B0932101BF91AF919F918F913F912F9119
:100210000F900FBE0F901F9018958FB7F8942091F4
:1002200022013091230140912401509125018FBF7B
:10023000B901CA010895019739F0880F991F880FF5
:10024000991F02970197F1F70895CF92DF92EF92ED
:10025000FF920F931F93CF93DF937C016B018A0171
:10026000C0E0D0E00FC0D6016D916D01D701ED91D6
:10027000FC910190F081E02DC7010995C80FD91FAD
:10028000015010400115110571F7CE01DF91CF919A
:100290001F910F91FF90EF90DF90CF900895CF9333
:1002A000DF93EC016115710519F420E030E00FC017
:1002B000DB010D900020E9F71197A61BB70BE88131
:1002C000F9810280F381E02DAD0109959C01C901FE
:1002D000DF91CF9108954F925F927F928F929F927C
:1002E000AF92BF92CF92DF92EF92FF920F931F9344
:1002F000DF93CF93CDB7DEB7A1970FB6F894DEBFEB
:100300000FBECDBF2C01742ECB01223008F42AE0A1
:1003100019A231E2C32ED12CCC0EDD1E822E9924DF
:10032000AA24BB24672D752FA50194010E94830484
:1003300079018A01C801B701A50194010E946404F2
:10034000472D461B0894C108D1084A3014F4405D7B
:1003500001C0495CF6014083E114F1040105110577
:1003600021F07E2C5F2DC801DDCFC201B6010E94B5
:100370004F01A1960FB6F894DEBF0FBECDBFCF914F
:10038000DF911F910F91FF90EF90DF90CF90BF9082
:10039000AF909F908F907F905F904F900895DC0179
:1003A0002115310541F4ED91FC910190F081E02D92
:1003B000642F099508950E946B0108950E944F01D2
:1003C00008950F931F938C01FC01868160E00E94C9
:1003D000100481E090E00E941B01F801868161E039
:1003E0000E94100481E090E00E941B01F8018681C8
:1003F00060E00E94100484E690E00E941B011F91BF
:100400000F910895CF92DF92EF92FF920F931F9377
:10041000CF93DF93D82EC92E282F392FC9018C01F5
:10042000C0E0D0E0E62EFF24F801878161E00E9461
:10043000D103B7010C2E02C0759567950A94E2F7B7
:100440006170F80187810E94100421960F5F1F4F91
:10045000C830D10549F78D2D9C2D0E94E101DF9117
:10046000CF911F910F91FF90EF90DF90CF90089563
:10047000CF92DF92EF92FF920F931F93CF93DF9370
:10048000D82EC92E282F392FC9018C01C0E0D0E009
:10049000E62EFF24F801878161E00E94D103B701B5
:1004A0000C2E02C0759567950A94E2F76170F80109
:1004B00087810E94100421960F5F1F4FC430D10521
:1004C00049F78D2D9C2D0E94E101DF91CF911F9165
:1004D0000F91FF90EF90DF90CF9008951F93CF93EF
:1004E000DF93EC01162F8C81642F0E9410048D8104
:1004F0008F3F19F060E00E9410048F8584FF05C0D3
:10050000CE01612F0E9402020EC0612F70E084E0D4
:10051000759567958A95E1F7CE010E943802CE0164
:10052000612F0E943802DF91CF911F91089541E021
:100530000E946E0281E090E0089540E00E946E0209
:100540000895FC016089862F8460808B6C60CF01E8
:100550000E949D020895DF93CF93CDB7DEB7289711
:100560000FB6F894DEBF0FBECDBF9C01FE013196E1
:10057000A6E1B1E088E00D9001928150E1F7F90128
:100580008389481710F0482F4150E42FF0E0EE0F18
:10059000FF1FEC0FFD1F8181680F6068C9010E9479
:1005A0009D0228960FB6F894DEBF0FBECDBFCF9147
:1005B000DF91089561E00E949D0280ED97E00E9426
:1005C0001B010895CF93DF93EC01423018F08F8523
:1005D00088608F874B8B1C8A222329F0413019F4C5
:1005E0008F8584608F8780E593EC0E941B018C814E
:1005F00060E00E9410048E8160E00E9410048D81F2
:100600008F3F19F060E00E9410046F8564FD1DC0EB
:10061000CE0163E00E94380284E991E10E941B014F
:10062000CE0163E00E94380284E991E10E941B013F
:10063000CE0163E00E94380286E990E00E941B012F
:10064000CE0162E00E94380216C06062CE010E94B4
:100650009D0284E991E10E941B016F856062CE01D9
:100660000E949D0286E990E00E941B016F856062F6
:10067000CE010E949D026F856062CE010E949D02A4
:1006800084E0888BCE010E94A102CE010E94DA0292
:1006900082E0898BCE0166E00E949D02DF91CF91BE
:1006A00008956F927F928F92AF92CF92EF920F93B5
:1006B0001F93DF93CF93CDB7DEB73C01162F842F66
:1006C000F301448325830683E782C086A186828660
:1006D0009D8593879E8594879F8595879889968722
:1006E00061E00E94D103F30185818F3F19F061E041
:1006F0000E94D103F301868161E00E94D10311239E
:1007000019F0F301178603C080E1F3018787C30165
:1007100060E141E020E00E94E202CF91DF911F9171
:100720000F91EF90CF90AF908F907F906F90089542
:100730008F92AF92CF92EF920F931F93CF93DF934D
:10074000DC01362F542F722F102FAE2C8C2C1396C9
:100750001C921E92129782E191E011969C938E93C7
:1007600000D000D0EDB7FEB73196CDB7DEB7198215
:10077000118212821382CD0161E0432F2FEF052FEA
:10078000E72EC12E0E9451030F900F900F900F90F3
:10079000DF91CF911F910F91EF90CF90AF908F90FD
:1007A0000895CF93DF93482F50E0CA0186569F4F9C
:1007B000FC0134914A575F4FFA018491882369F113
:1007C00090E0880F991FFC01E859FF4FA591B49163
:1007D000FC01EE58FF4FC591D491662351F42FB719
:1007E000F8948C91932F909589238C9388818923F9
:1007F0000BC0623061F42FB7F8948C91932F9095D1
:1008000089238C938881832B88832FBF06C09FB751
:10081000F8948C91832B8C939FBFDF91CF91089597
:10082000482F50E0CA0182559F4FFC012491CA0114
:1008300086569F4FFC0194914A575F4FFA013491BD
:10084000332309F440C0222351F1233071F02430C6
:1008500028F42130A1F0223011F514C02630B1F077
:100860002730C1F02430D9F404C0809180008F7704
:1008700003C0809180008F7D8093800010C084B57C
:100880008F7702C084B58F7D84BD09C08091B00090
:100890008F7703C08091B0008F7D8093B000E32FED
:1008A000F0E0EE0FFF1FEE58FF4FA591B4912FB768
:1008B000F894662321F48C919095892302C08C9141
:1008C000892B8C932FBF0895629FD001739FF001F5
:1008D000829FE00DF11D649FE00DF11D929FF00DD0
:1008E000839FF00D749FF00D659FF00D9927729F07
:1008F000B00DE11DF91F639FB00DE11DF91FBD0192
:10090000CF0111240895A1E21A2EAA1BBB1BFD01E1
:100910000DC0AA1FBB1FEE1FFF1FA217B307E407DE
:10092000F50720F0A21BB30BE40BF50B661F771F36
:10093000881F991F1A9469F7609570958095909516
:0E0940009B01AC01BD01CF010895F894FFCFDB
:10094E0068656C6C6F2C20776F726C6421000000F0
:0E095E00000097022501000040001400540024
:00000001FF
