:100000000C9434000C9451000C9451000C94510049
:100010000C9451000C9451000C9451000C9451001C
:100020000C9451000C9451000C9451000C9451000C
:100030000C9451000C9451000C9451000C945100FC
:100040000C9451000C9451000C9451000C945100EC
:100050000C9451000C9451000C9451000C945100DC
:100060000C9451000C94510011241FBECFEFD8E026
:10007000DEBFCDBF11E0A0E0B1E0ECE4F2E002C0F1
:1000800005900D92A430B107D9F711E0A4E0B1E0DA
:1000900001C01D92A430B107E1F70E949C000C94AE
:1000A00053000C940000F8940C942401CF92DF923A
:1000B000EF92FF920F931F93CF93DF937C018B01FD
:1000C0009C0140E007C0C9016AE070E00E94FD00A9
:1000D0009B014F5F12161306B4F3E42FFF27E7FDD1
:1000E000F0953197E801CE0FDF1F319620E030E028
:1000F0006F010EC0C7016AE070E00E94FD00805DE4
:100100008883C7016AE070E00E94FD007B012197AF
:100110002F5F3F4FC601821B930B97FFEBCFE00F82
:10012000F11F1082C801DF91CF911F910F91FF90B5
:10013000EF90DF90CF900895EF92FF920F931F936F
:10014000DF93CF9300D000D000D0CDB7DEB7209A98
:100150001092C50087E68093C4001092C00088E921
:100160008093C1008EE08093C20010927C0080ECEE
:1001700080937A00289A7E010894E11CF11C109269
:100180007C0080917A008F7E80937A0080917A0043
:10019000806480937A0080917A0084FFFCCF9091F4
:1001A000780080917900182F00E09801290F311D07
:1001B000C90132E08D3B930714F0289A01C02898BA
:1001C000B7010E945600FC0107C08091C00085FF66
:1001D000FCCF9093C600319690819923B1F7E0E06F
:1001E000F1E007C08091C00085FFFCCF9093C6006E
:1001F00031969081992319F2F5CF97FB092E0726A6
:100200000AD077FD04D00CD006D000201AF47095E7
:1002100061957F4F0895F6F7909581959F4F0895CA
:10022000AA1BBB1B51E107C0AA1FBB1FA617B7071C
:1002300010F0A61BB70B881F991F5A95A9F7809538
:0C0240009095BC01CD010895F894FFCF0B
:04024C000D0A000097
:00000001FF
