:100000000C9434000C943E000C943E000C943E0082
:100010000C943E000C943E000C943E000C943E0068
:100020000C943E000C943E000C943E000C943E0058
:100030000C943E000C943E000C943E000C943E0048
:100040000C943E000C943E000C943E000C943E0038
:100050000C943E000C943E000C943E000C943E0028
:100060000C943E000C943E0011241FBECFEFD8E04C
:10007000DEBFCDBF0E9462000C94D5010C9400003D
:10008000219A82E88093800089E18093810088EE44
:100090009DEF9093870080938600089528EE3DEFB2
:1000A000DC010E9498000E94490120E030E048EC09
:1000B00052E40E94AE000E94160170938900609382
:1000C000880008950E944000C0E0D0E0CA30D10509
:1000D000B4F0C4E6D0E0CE010E944E002FEF83ECD6
:1000E00099E0215080409040E1F700C000002A973D
:1000F000209789F7C0E0D0E0CA30D10554F79E01BF
:10010000220F331FCE01880F991F880F991F880F68
:10011000991F820F931F0E944E002FEF83EC99E0EE
:10012000215080409040E1F700C000002196CECFE2
:100130000E949F00B7FF0895821B930B0895A29F12
:10014000B001B39FC001A39F700D811D1124911DAB
:10015000B29F700D811D1124911D08950CD0EBC02C
:10016000E3D040F0DAD030F021F45F3F19F0CCC09A
:10017000511115C1CFC0F0D098F39923C9F355237D
:10018000B1F3951B550BBB27AA276217730784078A
:1001900038F09F5F5F4F220F331F441FAA1FA9F340
:1001A00033D00E2E3AF0E0E830D091505040E69532
:1001B000001CCAF729D0FE2F27D0660F771F881F93
:1001C000BB1F261737074807AB07B0E809F0BB0B82
:1001D000802DBF01FF2793585F4F2AF09E3F5105A6
:1001E00068F092C0DCC05F3FECF3983EDCF386958C
:1001F00077956795B795F7959F5FC9F7880F911D1C
:100200009695879597F90895E1E0660F771F881F07
:10021000BB1F621773078407BA0720F0621B730BBA
:10022000840BBA0BEE1F88F7E095089504D068940C
:10023000B111B5C0089598D088F09F5790F0B92FAC
:100240009927B751A0F0D1F0660F771F881F991F2B
:100250001AF0BA95C9F712C0B13081F09FD0B1E061
:1002600008959CC0672F782F8827B85F39F0B93F71
:10027000CCF3869577956795B395D9F73EF490952D
:100280008095709561957F4F8F4F9F4F0895E894AB
:1002900009C097FB3EF490958095709561957F4FCE
:1002A0008F4F9F4F9923A9F0F92F96E9BB2793957C
:1002B000F695879577956795B795F111F8CFFAF48C
:1002C000BB0F11F460FF1BC06F5F7F4F8F4F9F4FBD
:1002D00016C0882311F096E911C0772321F09EE81B
:1002E000872F762F05C0662371F096E8862F70E081
:1002F00060E02AF09A95660F771F881FDAF7880F5B
:100300009695879597F9089597F99F6780E870E02B
:1003100060E008959FEF80EC089500240A9416167B
:10032000170618060906089500240A9412161306E3
:10033000140605060895092E0394000C11F4882371
:1003400052F0BB0F40F4BF2B11F460FF04C06F5F8D
:100350007F4F8F4F9F4F089557FD9058440F551F63
:1003600059F05F3F71F04795880F97FB991F61F037
:100370009F3F79F087950895121613061406551FAE
:10038000F2CF4695F1DF08C0161617061806991F1A
:10039000F1CF86957105610508940895E894BB270F
:0E03A00066277727CB0197F90895F894FFCFD1
:00000001FF
