:100000000C9484010C94B1010C94B1010C94B101D5
:100010000C94B1010C94B1010C94B1010C94B10198
:100020000C94B1010C94B1010C94B1010C94B10188
:100030000C94B1010C94B1010C94B1010C941522F3
:100040000C94B1010C94B1010C94B1010C94B10168
:100050000C94B1010C94B1010C94B1010C940E0AF2
:100060000C94B1010C947D0D0C94C50E0C94B1014F
:100070000C94B1010C94B1010C94B1010C94B10138
:100080000C94B1010C94B1010C94B1010C94B10128
:100090000C94BD0D0C94040F0C94B1010C94B1019F
:1000A0000C94B1010C94B1010C94B1010C94B10108
:1000B0000C94B1010C94B1010C94B1010C94B101F8
:1000C0000C94B1010C94B1010C94B1010C94FD0D90
:1000D0000C94430F0C94B1010C943D0E0C94820FC0
:1000E0000C94B1016E616E00696E66000000210023
:1000F000240027002A002D003000330001010000F9
:10010000040107010A0100002200250028002B003D
:100110002E003100340002010000050108010B012E
:10012000000020002300260029002C002F003200B0
:100130000001000003010601090105050505070589
:1001400008080808020202020A0A08080404040453
:10015000010101010101010103030303030303037F
:10016000040707070C0C0C0C0C0C0C0C020202020E
:1001700006060606060606060B0B0B0B0B0B0B0BF7
:1001800001021020200808102040102040800201A9
:10019000020108040201010204081020408080408E
:1001A000201008040201800402018040201008048D
:1001B000020108040201010204081020408001022B
:1001C0000408102040800000090A02080B0C0D07EB
:1001D0000603040100000000000000000000000011
:1001E000000000000000000000000000000000000F
:1001F000000011100F0000000000000000000000CF
:1002000000000000000000000000000000407A1024
:10021000F35A00A0724E18090010A5D4E80000E8B7
:100220007648170000E40B54020000CA9A3B000015
:1002300000E1F505000080969800000040420F00A4
:100240000000A08601000000102700000000E80365
:10025000000000006400000000000A000000000030
:100260000100000000002C76D888DC674F0823DFEF
:10027000C1DFAE59E1B1B796E5E3E453C63AE651C2
:10028000997696E8E6C28426EB898C9B62ED407CE9
:100290006FFCEFBC9C9F40F2BAA56FA5F490055A85
:1002A0002AF75C936B6CF9676DC11BFCE0E40D47AA
:1002B000FEF520E6B500D0ED902E030094357705CD
:1002C0000080841E080000204E0A000000C80C3385
:1002D0003333330F986E12831141EF8D2114893B14
:1002E000E65516CFFEE6DB18D1844B381BF77C1D94
:1002F000901DA4BBE424203284725E228100C9F1E7
:1003000024ECA1E53D276E1211241FBECFEFD1E2F0
:10031000DEBFCDBF00E00CBF12E0A0E0B2E0EAEA31
:10032000FEE400E00BBF02C007900D92AE3CB107A7
:10033000D9F71BBE15E0AEECB2E001C01D92A13CA6
:10034000B107E1F713E0C8E0D3E004C02297FE0153
:100350000E944F27C630D107C9F70E9441210C9453
:10036000C4050C940000A1E1B0E0E9EBF1E00C94CD
:1003700016273C017F876E876A01FC01178216826F
:10038000838181FD03C06FEF7FEF71C39E012F5FFB
:100390003F4F398B288BF3012381EE85FF8523FDA9
:1003A000859123FF8191FF87EE87882309F45CC341
:1003B000853251F4EE85FF8523FD859123FF8191E0
:1003C000FF87EE87853229F490E0B3010E94D207BF
:1003D000E2CF982F10E0882499241032B0F49B3299
:1003E00069F09C3228F4903251F0933271F40BC0D2
:1003F0009D3239F0903349F4116028C012601460C6
:1004000025C0186023C0106121C017FD2AC0892FA4
:1004100080538A3078F416FF06C0FAE09F9E902C35
:100420001124980E13C03AE0839E802C1124880E6C
:1004300010620CC09E3221F416FD16C3106406C073
:100440009C3611F4106802C0983659F4EE85FF8589
:1004500023FD959123FF9191FF87EE87992309F062
:10046000BCCF892F8554833020F4812F8061905E2A
:1004700007C0892F8556833008F0A1C1812F8F7E58
:1004800086FD02C076E0972E6FE3F62EF8229536B1
:1004900019F4F0E4FF2A07C0963619F420E8F22A8E
:1004A00002C091109A94F7FE0BC03BE3391520F47B
:1004B00027E05CE3B52E0EC0B92CB39427E00AC048
:1004C00047E0491528F427E0BB2447E0942E02C0FA
:1004D000292DBB24C60104969D878C87F601608177
:1004E000718182819381AE014F5F5F4F0B2D0E941E
:1004F000C7056C010981202E332400FF04C003FDD1
:1005000002C01DE209C0F1FE02C01BE205C0F2FC00
:1005100002C010E001C010E2C1018C709070892B04
:10052000B9F1112311F483E001C084E0881510F0C3
:1005300088240AC0881AF3FC07C080E290E0B30167
:100540000E94D2078A94C9F7112329F0812F90E0E5
:10055000B3010E94D20723FE03C004EE10E00EC0D8
:1005600008EE10E00BC0E114F10409F0805290E0B5
:10057000B3010E94D2070F5F1F4F05C0EF2CFF246D
:10058000F0E1EF22FF24F8018491882361F714C180
:10059000F7FE12C0BC0C24FE04C08A81813309F42A
:1005A000BA941B141CF0BB24B3942DC0F8E0FB15C7
:1005B00050F538E0B32E27C0F6FC25C0892D90E019
:1005C0008C159D054CF02CEFC2162FEFD20624F0AF
:1005D00030E8F32A01C09A94992049F0E2E0F0E073
:1005E000EC0FFD1FE90DF11D80818033A1F3F7FEB3
:1005F0000AC0B92CB394892D90E0C816D90614F01E
:10060000992401C09C18F7FC03C025E030E009C024
:100610001C141D041CF021E030E003C096012F5F84
:100620003F4F112311F02F5F3F4F992029F0892D63
:1006300090E00196280F391F882D90E02817390780
:1006400014F0882401C0821A4F2C5524C2018970ED
:100650009070892B39F008C080E290E0B3010E94CD
:10066000D2078A948820C1F7112329F0812F90E0C6
:10067000B3010E94D20743FE07C008C080E390E0A8
:10068000B3010E94D2078A948820C1F7F7FE46C0C2
:100690008601D7FE02C000E010E076010894E11C5C
:1006A000F11CE01AF10A41E050E04C0F5D1FE40E2E
:1006B000F51E26014B185108892D90E0AA24BB2471
:1006C000A81AB90A5FEF0F3F150729F48EE290E0F0
:1006D000B3010E94D207C016D10634F0401651066D
:1006E0001CF4F701808101C080E3015010400894A0
:1006F000E11CF11C0A151B052CF090E0B3010E94CF
:10070000D207E0CF0C151D0539F49A81963318F401
:10071000953311F424FE81E390E04BC08A8181334C
:1007200009F00F7E90E0B3010E94D2079920A1F05A
:100730008EE290E0B3010E94D20712E0E1E0F0E027
:10074000EC0FFD1FE10FF11D1F5F808190E0B301F1
:100750000E94D2079A9491F744FC03C085E690E08A
:1007600002C085E490E0B3010E94D207D7FC05C027
:10077000C114D10441F404FF06C0D094C194D1083F
:10078000D3948DE201C08BE290E0B3010E94D207C6
:1007900080E305C08F5F26EF3FEFC20ED31E3AE025
:1007A000C316D104BCF790E0B3010E94D207C60182
:1007B000C096B3010E94D207CC84DD8452C1933627
:1007C00031F0933799F0933509F059C023C0F60101
:1007D000808189835E010894A11CB11C22E030E075
:1007E000C20ED31E21E0E22EF12C12C0F601A08031
:1007F000B18016FD03C06FEF7FEF02C0692D70E07E
:1008000022E030E0C20ED31EC5010E94FD067C012D
:100810001F7713C0F601A080B18016FD03C06FEFF3
:100820007FEF02C0692D70E022E030E0C20ED31EDF
:10083000C5010E949F067C01106813FF07C01BC002
:1008400080E290E0B3010E94D2078A94882D90E064
:10085000E816F906A8F30FC0F50117FD859117FFFB
:1008600081915F0190E0B3010E94D20781108A94C8
:100870000894E108F108E114F10471F7F2C094362C
:1008800011F0993689F517FF08C0F60120813181F2
:100890004281538184E090E00AC0F6018081918119
:1008A0009C01442737FD4095542F82E090E0C80E0C
:1008B000D91E9FE6F92EF12257FF09C050954095A9
:1008C000309521953F4F4F4F5F4F90E8F92ACA016D
:1008D000B901AE014F5F5F4F2AE030E00E9422086D
:1008E000E82EE889EE1A41C0953721F41F7E2AE0F0
:1008F00030E01CC0197F9F3661F0903720F49835A6
:1009000009F0B2C00FC0903739F0983709F0ACC089
:1009100004C028E030E00AC0106114FD146020E13A
:1009200030E004C014FD166020E132E017FF08C07B
:10093000F601608171818281938144E050E008C0BA
:10094000F60180819181BC0180E090E042E050E0BE
:10095000C40ED51EAE014F5F5F4F0E942208E82EE5
:100960005889E51A8FE7F82EF122F6FE0BC08EEFBC
:10097000F822E91438F4F4FE07C0F2FC05C09FEE3B
:10098000F92202C01E2D01C0192DF4FE0DC0FE017A
:10099000EE0DF11D8081803319F4E9EEFE2208C0CE
:1009A0001F5FF2FE05C003C08F2D867809F01F5F20
:1009B0000F2DF3FC14C0F0FE0FC0181510F09E2C84
:1009C0000BC09E2C980C911A182D06C080E290E066
:1009D000B3010E94D2071F5F1815C0F304C0181599
:1009E00010F4811A01C0882404FF0FC080E390E056
:1009F000B3010E94D20702FF1DC001FD03C088E7BA
:100A000090E00EC088E590E00BC0802F867891F0D2
:100A100001FF02C08BE201C080E2F7FC8DE290E0B2
:100A2000B3010E94D20706C080E390E0B3010E94A8
:100A3000D2079A94E914C0F3EA94E1E0F0E0EC0FF5
:100A4000FD1FEE0DF11D808190E0B3010E94D207E1
:100A5000EE2091F706C080E290E0B3010E94D20739
:100A60008A948820C1F797CCF30166817781CB0106
:100A70006196E2E10C943227A0E0B0E0E2E4F5E018
:100A80000C941E27EC01A880B980CA80DB80A114D9
:100A9000B104C104D10441F484E2A82E89EDB82E3A
:100AA0008BE5C82E87E0D82EC601B5012DE133EFC6
:100AB00041E050E00E94FB2627EA31E440E050E0AC
:100AC0000E9493267B018C01C601B5012DE133EF15
:100AD00041E050E00E94FB26CA01B9012CEE34EF40
:100AE0004FEF5FEF0E9493266E0D7F1D801F911FB9
:100AF00097FF04C0615070408040904868837983BC
:100B00008A839B839B01AC015F77B901CA01CDB792
:100B1000DEB7EAE00C943A270E943C05089582E48F
:100B200092E00E943C050895609342027093430254
:100B3000809344029093450208951F93FC019927E6
:100B40008827BC01E89411911032E9F3193010F0B4
:100B50001E30C8F31B3251F01D3249F4689406C0B0
:100B60000E948207610F711D811D911D119110530B
:100B70001A30B0F33EF490958095709561957F4F53
:100B80008F4F9F4F1F910895F8940C94532728304E
:100B900008F027E03327DA01990F311D87FD9160B6
:100BA00000966105710539F432602E5F3D9330E3A4
:100BB0002A95E1F708959F3F30F08038710561056F
:100BC00009F03C5F3C5F3D93913008F08068911DD7
:100BD000DF93CF931F930F93FF92EF92192F987F7C
:100BE0009695E92F96959695E90FFF27EA59FD4FBF
:100BF00099273327EE24FF24A701E70105900894E5
:100C0000079428F4360FE71EF81E491F511D660F82
:100C1000771F881F991F0694A1F70590079428F461
:100C2000E70EF81E491F561FC11D770F881F991F19
:100C3000661F0694A1F70590079428F4F80E491F43
:100C4000561FC71FD11D880F991F661F771F069457
:100C5000A1F70590079420F4490F561FC71FD81F0E
:100C6000990F661F771F881F0694A9F78491109526
:100C7000177041F0D695C79557954795F794E79427
:100C80001A95C1F7ECE0F2E0689415901591359152
:100C90006591959105907FE27395E118F10A430BF8
:100CA000560BC90BD009C0F7E10CF11E431F561FAC
:100CB000C91FD01D7EF4703311F48A95E6CFE894F5
:100CC000015030F0080F0AF40027021708F4202F13
:100CD0002395022F7A3328F079E37D932A95E9F75B
:100CE00010C07D932A9589F6069497956795379558
:100CF00017951794E118F10A430B560BC90BD0094D
:100D000098F023957E9173957A3308F070E37C9385
:100D10002013B8F77E9170617D9330F0839571E375
:100D20007D9370E32A95E1F71124EF90FF900F91E6
:100D30001F91CF91DF91992787FD90950895FC0130
:100D40000590615070400110D8F7809590958E0FF6
:100D50009F1F0895FB01DC0102C001900D924150DC
:100D60005040D8F708956817790768F4FB01DC0153
:100D7000E40FF51FA40FB51F02C002900E92415060
:100D80005040D8F708950C94AA06FC01819186176B
:100D900021F08823D9F7992708953197CF01089535
:100DA000FB01DC018D91019080190110D9F3990BA1
:100DB0000895FB01DC0101900D920020E1F70895F8
:100DC000FB01DC014150504030F08D9101908019C1
:100DD00019F40020B9F7881B990B0895FB01DC0179
:100DE0004150504048F001900D920020C9F701C0D9
:100DF0001D9241505040E0F70895FC016150704051
:100E000001900110D8F7809590958E0F9F1F08953F
:100E1000FC0181E090E00190061609F4CF0100206A
:100E2000D1F701970895FB0151915523A9F0BF0116
:100E3000DC014D9145174111E1F759F4CD010190C5
:100E4000002049F04D9140154111C9F3FB014111BA
:100E5000EFCF81E090E001970895FB019F01E894B6
:100E60004230C4F04532B4F44A3029F497FB1EF402
:100E7000909581959F4F642F77270E94B226805DC1
:100E80008A330CF0895D8193CB010097A1F716F4AA
:100E90005DE251931082C9010C948008FA01CF934E
:100EA000FF93EF93223044F1253234F5C22FE894BA
:100EB000CA3049F497FB3EF4909580957095619502
:100EC0007F4F8F4F9F4F2C2F332744275527FF935A
:100ED000EF930E94D926EF91FF91605D6A330CF089
:100EE000695D6193B901CA016050704080409040D3
:100EF00051F716F4CDE2C19310828F919F91CF915B
:100F00000C948008592F482F372F262F660F771FF4
:100F1000881F991F660F771F881F991F620F731F05
:100F2000841F951F660F771F881F991F0895FA0168
:100F3000CF93FF93EF932230CCF02532BCF4C22F35
:100F40002C2F332744275527FF93EF930E94D92650
:100F5000EF91FF91605D6A330CF0695D6193B901B7
:100F6000CA01605070408040904051F710828F91CC
:100F70009F91CF910C948008FB019F01423074F047
:100F8000453264F4642F77270E94B226805D8A334D
:100F90000CF0895D8193CB010097A1F71082C90104
:100FA0000C9480080F931F93CF93DF938C01EB0178
:100FB0008B8181FF1BC082FF0DC02E813F818C8100
:100FC0009D812817390764F4E881F9810193F98339
:100FD000E88306C0E885F985802F1995892B31F4BF
:100FE0008E819F8101969F838E8302C00FEF1FEF3A
:100FF000C801DF91CF911F910F910895AEE0B0E04D
:10100000E4E0F8E00C9424270E891F8986E08C83A5
:101010001A8309838FEF9FE79E838D839E01265E4F
:101020003F4FCE010196688D798DA9010E94B301D1
:101030002F813885020F131FF80110822E96E4E0ED
:101040000C944027FA01AA27283051F1203181F170
:10105000E8946F936E7F6E5F7F4F8F4F9F4FAF4FC0
:10106000B1E03ED0B4E03CD0670F781F891F9A1FD3
:10107000A11D680F791F8A1F911DA11D6A0F711D87
:10108000811D911DA11D20D009F468943F912AE093
:10109000269F11243019305D3193DEF6CF0108957B
:1010A000462F4770405D4193B3E00FD0C9F7F6CFAC
:1010B000462F4F70405D4A3318F0495D31FD405274
:1010C000419302D0A9F7EACFB4E0A695979587950A
:1010D00077956795BA95C9F70097610571050895E9
:1010E0009B01AC010A2E0694579547953795279595
:1010F000BA95C9F7620F731F841F951FA01D08952D
:10110000DC01FC01672F71917723E1F7329704C06E
:101110007C916D9370836291AE17BF07C8F30895F9
:10112000AF92BF92CF92DF92EF92FF920F931F93F5
:10113000CF93DF9387E30E94520B9093F502809345
:10114000F40200D00F92AA2797FDA095BA2F2FEF97
:1011500030E040E050E0EDB7FEB7218332834383B7
:101160005483BC01CD0120E030E040E050E0EFEFDF
:10117000EE2EE3E0FE2E012D112DAA24BB246501E5
:101180000E9448177093F7026093F602CAE4D2E017
:1011900000E010E00F900F900F900F908091FA02F6
:1011A0009091FB02FC01EE0FFF1FE80FF91FEE0FFD
:1011B000FF1FE00FF11FEE0FFF1FEA5AFD4F808166
:1011C0009181892B41F06091F6027091F70288813C
:1011D0000E94860B04C0888160E00E94190D0F5F99
:1011E0001F4F229606301105C9F660914802709192
:1011F000490288EE93E00E94C626882777FD8095F5
:10120000982F0E948A0A8091FA029091FB0201961F
:101210009093FB028093FA02069724F01092FB024F
:101220001092FA0286E30E94520B9C019093CF0227
:101230008093CE0200D00F9240E050E08FEF90E01C
:10124000A0E0B0E0EDB7FEB781839283A383B483BF
:10125000CA01B90120E030E040E050E0EFEFEE2EAF
:10126000E3E0FE2E012D112DAA24BB2465010E946E
:1012700048179B01AC017093D1026093D0020F908C
:101280000F900F900F9080914602B9010E94860B3B
:10129000DF91CF911F910F91FF90EF90DF90CF9052
:1012A000BF90AF900895CF93DF93CAE4D2E08881D6
:1012B00061E00E94660C229682E0C635D807B9F735
:1012C00084E190E09093FD028093FC021092FB0277
:1012D0001092FA028091460261E00E94660C87E259
:1012E00095E040E855E260E070E00E94491068EE49
:1012F00073E080E090E049EB59E00E946C210E948D
:10130000BA21DF91CF9108950F931F9388E30E9434
:10131000520B9093F9028093F802909349028093C4
:10132000480207E215E0C80160E072E00E94F11592
:101330006091480270914902C8014AE050E00E9461
:10134000BF151F910F9108950F931F9307E215E0AA
:10135000C8016FE072E00E94F1156091F602709191
:10136000F702C8014AE050E00E94BF151F910F919B
:1013700008950F931F930E9484090E94A40960910D
:10138000D0027091D10280E090E00E94732520E0AD
:1013900030E040EA50E40E94292620E030E04FE7A8
:1013A00053E40E94DA249B01AC012093F0023093B5
:1013B000F1024093F2025093F3022DB73EB728504A
:1013C00030400FB6F8943EBF0FBE2DBFEDB7FEB74D
:1013D000319602ED12E0ADB7BEB712961C930E9394
:1013E00011972EE132E033832283CB01DA0184832B
:1013F0009583A683B7830E94FE072DB73EB7285F6B
:101400003F4F0FB6F8943EBF0FBE2DBF87E295E069
:10141000B8010E94EE161F910F9108951F920F922E
:101420000FB60F9211242F933F938F939F93AF93F7
:10143000BF938091020390910303A0910403B091A4
:101440000503309106030196A11DB11D232F2D5FC9
:101450002D3720F02D570196A11DB11D20930603B5
:101460008093020390930303A0930403B0930503B6
:101470008091FE029091FF02A0910003B0910103C0
:101480000196A11DB11D8093FE029093FF02A093CF
:101490000003B0930103BF91AF919F918F913F9152
:1014A0002F910F900FBE0F901F9018958FB7F89443
:1014B00020910203309103034091040350910503EE
:1014C0008FBFB901CA0108959FB7F8942091FE0219
:1014D0003091FF02409100035091010386B5A89B13
:1014E00006C08F3F21F02F5F3F4F4F4F5F4F9FBF91
:1014F000542F432F322F2227280F311D411D511DFC
:1015000082E0220F331F441F551F8A95D1F7B9017E
:10151000CA0108959B01AC017FB7F8948091FE0247
:101520009091FF02A0910003B091010366B5A89BC2
:1015300005C06F3F19F00196A11DB11D7FBFBA2FE5
:10154000A92F982F8827860F911DA11DB11D62E03C
:10155000880F991FAA1FBB1F6A95D1F7BC012DC028
:10156000FFB7F8948091FE029091FF02A0910003D2
:10157000B0910103E6B5A89B05C0EF3F19F00196B5
:10158000A11DB11DFFBFBA2FA92F982F88278E0F3D
:10159000911DA11DB11DE2E0880F991FAA1FBB1F5D
:1015A000EA95D1F7861B970B885E9340C8F22150CD
:1015B00030404040504068517C4F21153105410575
:1015C000510571F60895019739F0880F991F880F1A
:1015D000991F02970197F1F70895789484B5826076
:1015E00084BD84B5816084BD85B5826085BD85B5C7
:1015F000816085BDEEE6F0E0808181608083E1E876
:10160000F0E01082808182608083808181608083AD
:10161000E0E8F0E0808181608083E1EBF0E08081B0
:1016200084608083E0EBF0E0808181608083E1E989
:10163000F0E0808182608083808181608083E0E946
:10164000F0E0808181608083E1EAF0E08081826067
:101650008083808181608083E0EAF0E08081816026
:101660008083E1E2F1E0808182608083808181601B
:101670008083E0E2F1E0808181608083EAE7F0E04E
:1016800080818460808380818260808380818160AA
:1016900080838081806880831092C1000895809348
:1016A0009E020895382F863308F0365320917B0030
:1016B000832F86958695869590E08170907043E0A3
:1016C000880F991F4A95E1F7277F282B20937B00ED
:1016D000377080919E028295880F880F807C832BC3
:1016E00080937C0080917A00806480937A0080915E
:1016F0007A0086FDFCCF2091780040917900942FEC
:1017000080E030E0282B392BC90108951F93CF9337
:10171000DF93182FEB0161E00E94660C209709F41B
:10172000CAC0CF3FD10509F4C9C0E12FF0E0EA53A8
:10173000FE4F8491893009F466C08A30B0F4843059
:10174000F1F1853040F4823059F1833070F5813009
:1017500009F0AEC020C0873009F443C0883008F0DB
:1017600048C0863009F0A4C034C08D3009F478C078
:101770008E3038F48B3009F45AC08C3008F066C0D3
:101780004CC0803109F480C0813109F487C08F30AA
:1017900009F08EC06FC084B5806884BDC7BD92C09B
:1017A00084B5806284BDC8BD8DC080918000806892
:1017B00080938000D0938900C093880083C080917B
:1017C0008000806280938000D0938B00C0938A0059
:1017D00079C08091B00080688093B000C093B3005E
:1017E00071C08091B00080628093B000C093B4005B
:1017F00069C080919000806880939000D093990098
:10180000C09398005FC080919000806280939000A8
:10181000D0939B00C0939A0055C08091900088603F
:1018200080939000D0939D00C0939C004BC080910A
:10183000A00080688093A0008091A0008F7B80939F
:10184000A000D093A900C093A8003CC08091A00044
:1018500080628093A000D093AB00C093AA0032C0F6
:101860008091A00088608093A000D093AD00C093C9
:10187000AC0028C080912001806880932001D09323
:101880002901C09328011EC08091200180628093AD
:101890002001D0932B01C0932A0114C08091200114
:1018A000886080932001D0932D01C0932C010AC041
:1018B000C038D1051CF4812F60E002C0812F61E0A7
:1018C0000E94190DDF91CF911F910895CF93DF935F
:1018D000482F50E0CA0180589E4FFC013491465C6D
:1018E0005E4FFA018491882369F190E0880F991F77
:1018F000FC01E451FF4FA591B491FC01EA5FFE4F5A
:10190000C591D491662351F42FB7F8948C91932FFD
:10191000909589238C93888189230BC0623061F470
:101920002FB7F8948C91932F909589238C9388816D
:10193000832B88832FBF06C09FB7F8948C91832B8D
:101940008C939FBFDF91CF910895893009F449C0EE
:101950008A30A0F4843051F1853040F4823079F13E
:10196000833000F5813009F063C026C0873079F1FB
:10197000883098F5863009F05BC025C08D3009F4B9
:1019800042C08E3028F48B30B1F18C30C0F52DC0C0
:10199000803109F442C0813109F445C08F3009F02B
:1019A00047C037C0809180008F7703C0809180004E
:1019B0008F7D80938000089584B58F7702C084B5B1
:1019C0008F7D84BD08958091B0008F7703C0809192
:1019D000B0008F7D8093B0000895809190008F7744
:1019E00007C0809190008F7D03C080919000877F19
:1019F0008093900008958091A0008F7707C0809118
:101A0000A0008F7D03C08091A000877F8093A000FD
:101A10000895809120018F7703C0809120018F7DF0
:101A200080932001089580912001877F8093200179
:101A30000895FF920F931F93F62E482F50E0CA018E
:101A40008A539E4FFC012491CA0180589E4FFC018D
:101A50001491465C5E4FFA0104910023C9F02223E1
:101A600019F0822F0E94A50CE02FF0E0EE0FFF1F6F
:101A7000EA5FFE4FA591B4919FB7F894FF2021F43F
:101A80008C911095812302C08C91812B8C939FBFE8
:101A90001F910F91FF9008950F931F93482F50E0CF
:101AA000CA018A539E4FFC012491CA0180589E4F5F
:101AB000FC010491465C5E4FFA011491112319F464
:101AC00020E030E015C0222319F0822F0E94A50CDF
:101AD000812F90E0880F991F805E9E4FFC01A59199
:101AE000B4918C9120E030E0802311F021E030E0CF
:101AF000C9011F910F91089508951F920F920FB67B
:101B00000F920BB60F9211242F933F934F938F9305
:101B10009F93EF93FF938091C00082FD1DC0409181
:101B2000C60020914703309148032F5F3F4F2F732A
:101B300030708091490390914A032817390771F05A
:101B4000E0914703F0914803E95FFC4F40833093F5
:101B500048032093470302C08091C600FF91EF9194
:101B60009F918F914F913F912F910F900BBE0F90AE
:101B70000FBE0F901F90189508951F920F920FB6E9
:101B80000F920BB60F9211242F933F934F938F9385
:101B90009F93EF93FF938091C80082FD1DC04091F9
:101BA000CE002091CF033091D0032F5F3F4F2F7392
:101BB00030708091D1039091D2032817390771F0CA
:101BC000E091CF03F091D003E157FC4F4083309375
:101BD000D0032093CF0302C08091CE00FF91EF91FC
:101BE0009F918F914F913F912F910F900BBE0F902E
:101BF0000FBE0F901F90189508951F920F920FB669
:101C00000F920BB60F9211242F933F934F938F9304
:101C10009F93EF93FF938091D00082FD1DC0409170
:101C2000D60020915704309158042F5F3F4F2F73F7
:101C300030708091590490915A042817390771F037
:101C4000E0915704F0915804E95EFB4F40833093D4
:101C500058042093570402C08091D600FF91EF9161
:101C60009F918F914F913F912F910F900BBE0F90AD
:101C70000FBE0F901F90189508951F920F920FB6E8
:101C80000F920BB60F9211242F933F934F938F9384
:101C90009F93EF93FF938091300182FD1DC040918F
:101CA00036012091DF043091E0042F5F3F4F2F7306
:101CB00030708091E1049091E2042817390771F0A7
:101CC000E091DF04F091E004E156FB4F4083309354
:101CD000E0042093DF0402C080913601FF91EF9170
:101CE0009F918F914F913F912F910F900BBE0F902D
:101CF0000FBE0F901F901895E0913305F0913405B9
:101D0000E05CFF4F8191919120813181821B930B87
:101D10008F739070892B11F00E947C0DE091550516
:101D2000F0915605E05CFF4F8191919120813181C6
:101D3000821B930B8F739070892B11F00E94BC0D46
:101D4000E0917705F0917805E05CFF4F81919191EA
:101D500020813181821B930B8F739070892B11F03E
:101D60000E94FC0DE0919905F0919A05E05CFF4F0F
:101D70008191919120813181821B930B8F7390709F
:101D8000892B11F00E943C0E08951F920F920FB6FE
:101D90000F920BB60F9211242F933F938F939F9323
:101DA000EF93FF9320918B0330918C0380918D03EF
:101DB00090918E032817390731F48091C1008F7DEF
:101DC0008093C10014C0E0918D03F0918E03E55B18
:101DD000FC4F208180918D0390918E0301968F732B
:101DE000907090938E0380938D032093C600FF9193
:101DF000EF919F918F913F912F910F900BBE0F907C
:101E00000FBE0F901F9018951F920F920FB60F9252
:101E10000BB60F9211242F933F938F939F93EF93C1
:101E2000FF93209113043091140480911504909134
:101E300016042817390731F48091C9008F7D8093EB
:101E4000C90014C0E0911504F0911604ED52FC4F46
:101E50002081809115049091160401968F739070E3
:101E600090931604809315042093CE00FF91EF9178
:101E70009F918F913F912F910F900BBE0F900FBEAE
:101E80000F901F9018951F920F920FB60F920BB6DE
:101E90000F9211242F933F938F939F93EF93FF9370
:101EA00020919B0430919C0480919D0490919E040C
:101EB0002817390731F48091D1008F7D8093D100AC
:101EC00014C0E0919D04F0919E04E55AFB4F2081DF
:101ED00080919D0490919E0401968F7390709093D1
:101EE0009E0480939D042093D600FF91EF919F91D3
:101EF0008F913F912F910F900BBE0F900FBE0F90BF
:101F00001F9018951F920F920FB60F920BB60F925B
:101F100011242F933F938F939F93EF93FF932091DF
:101F200023053091240580912505909126052817D9
:101F3000390731F4809131018F7D8093310114C0D4
:101F4000E0912505F0912605ED51FB4F2081809110
:101F500025059091260501968F7390709093260524
:101F60008093250520933601FF91EF919F918F91EA
:101F70003F912F910F900BBE0F900FBE0F901F90AF
:101F800018958F929F92AF92BF92CF92DF92EF926D
:101F9000FF920F931F93DF93CF93CDB7DEB7FC0172
:101FA0001382128288EE93E0A0E0B0E084839583F0
:101FB000A683B78389EA92E09183808375876487DB
:101FC00057874687318B208B138B028BF58AE48AE7
:101FD000D78AC68AB18EA08E938E828E8889848F8E
:101FE0008989858F8A89868F8B89878F8C8980A341
:101FF000CF91DF911F910F91FF90EF90DF90CF90E5
:10200000BF90AF909F908F9008958F929F92AF92C4
:10201000BF92CF92DF92EF92FF920F931F93DF93C5
:10202000CF93CDB7DEB7FC011382128288EE93E026
:10203000A0E0B0E084839583A683B78389EA92E029
:10204000918380837587648757874687318B208B80
:10205000138B028BF58AE48AD78AC68AB18EA08E4A
:10206000938E828E8889848F8989858F8A89868FCD
:102070008B89878F8C8980A3CF91DF911F910F91DE
:10208000FF90EF90DF90CF90BF90AF909F908F9098
:102090000895AF92BF92DF92EF92FF920F931F933A
:1020A000CF93DF93EC017A018B01DD24403081EE88
:1020B000580780E0680780E0780711F0DD24D394AA
:1020C00091E0A92EB12CEC89FD89DD2069F0C501D4
:1020D00008A002C0880F991F0A94E2F7808360E08D
:1020E00079E08DE390E005C0108260E874E88EE14D
:1020F00090E0A80197010E94D9262150304040402D
:102100005040569547953795279580E12030380700
:1021100020F0DD2011F0DD24D6CFE889F989308365
:10212000EA89FB89208319A2EE89FF89408121E099
:1021300030E0C9010C8C02C0880F991F0A94E2F7A5
:10214000482B4083EE89FF894081C9010D8C02C074
:10215000880F991F0A94E2F7482B4083EE89FF8984
:102160004081C9010E8C02C0880F991F0A94E2F7C2
:10217000482B4083EE89FF8980810F8C02C0220F9B
:10218000331F0A94E2F7209528232083DF91CF9113
:102190001F910F91FF90EF90DF90BF90AF90089547
:1021A000AF92BF92CF92DF92EF92FF920F931F9365
:1021B000CF93DF93EC017A018B01C22EDD244030F6
:1021C00081EE580780E0680780E0780711F0DD2491
:1021D000D39471E0A72EB12CEC89FD89DD2069F044
:1021E000C50108A002C0880F991F0A94E2F78083F6
:1021F00060E079E08DE390E005C0108260E874E86B
:102200008EE190E0A80197010E94D926215030402C
:1022100040405040569547953795279580E12030AE
:10222000380720F0DD2011F0DD24D6CFE889F989C8
:102230003083EA89FB892083E88DF98DC082EE899D
:10224000FF89408121E030E0C9010C8C02C0880F79
:10225000991F0A94E2F7482B4083EE89FF89408159
:10226000C9010D8C02C0880F991F0A94E2F7482B10
:102270004083EE89FF894081C9010E8C02C0880F1E
:10228000991F0A94E2F7482B4083EE89FF898081E9
:102290000F8C02C0220F331F0A94E2F720952823E7
:1022A0002083DF91CF911F910F91FF90EF90DF90EE
:1022B000CF90BF90AF900895CF93DF93DC011E962F
:1022C0008D919C911F97EC01C05CDF4FFC01EE5B90
:1022D000FF4F288139818081918128173907C9F7FB
:1022E0005696ED91FC915797408121E030E0C9016D
:1022F0005C960C905C9702C0880F991F0A94E2F7D5
:102300008095842380835696ED91FC915797408168
:10231000C9015D960C905D9702C0880F991F0A94C1
:10232000E2F78095842380835696ED91FC91579730
:102330004081C9015E960C905E9702C0880F991F7C
:102340000A94E2F78095842380835696ED91FC9160
:10235000579780815F960C905F9702C0220F331FC2
:102360000A94E2F72095282320831C96ED91FC9196
:102370001D97EE5BFF4F8081918192938293DF9155
:10238000CF910895DC011C96ED91FC911D97E05CC6
:10239000FF4F2191319180819181281B390B2F733F
:1023A0003070C9010895DC011C96ED91FC911D97D8
:1023B000E05CFF4F20813181E054F040DF01AE5BF3
:1023C000BF4F8D919C9111972817390719F42FEF62
:1023D0003FEF07C08D919C91E80FF91F8081282F56
:1023E00030E0C9010895DC011C96ED91FC911D9728
:1023F000E05CFF4F20813181E054F040DF01AE5BB3
:10240000BF4F8D919C9111972817390719F42FEF21
:102410003FEF10C08D919C911197E80FF91F20811B
:102420008D919C91119701968F73907011969C934A
:102430008E9330E0C9010895DC0191968C919197BB
:10244000882339F05496ED91FC915597808186FF51
:10245000F9CF91961C920895CF93DF93EC01EE850E
:10246000FF85E05CFF4F20813181E054F0402F5F19
:102470003F4F2F733070DF01AE5BBF4F8D919C914A
:10248000119728173907D1F3E05CFF4F80819181C4
:10249000E054F040E80FF91F6083EE85FF85E05CB3
:1024A000FF4F31832083EE89FF89208181E090E016
:1024B0000F8C02C0880F991F0A94E2F7282B208303
:1024C00081E089A3EC89FD8980818064808381E03B
:1024D00090E0DF91CF91089581E008951F931092CD
:1024E0002A051092290528EE33E040E050E02093C1
:1024F0002B0530932C0540932D0550932E0569EA4A
:1025000072E0709328056093270587E093E090932D
:102510003405809333058BE493E0909336058093E4
:10252000350585EC90E0909338058093370584EC71
:1025300090E090933A058093390580EC90E0909379
:102540003C0580933B0581EC90E090933E058093A1
:102550003D0582EC90E09093400580933F0586EC2A
:1025600090E0909342058093410514E01093430559
:10257000B3E0B0934405A7E0A0934505F5E0F093E0
:102580004605E1E0E093470510924C0510924B059B
:1025900020934D0530934E0540934F0550935005C1
:1025A00070934A05609349058FE893E09093560530
:1025B0008093550583ED93E09093580580935705DC
:1025C0008DEC90E090935A05809359058CEC90E047
:1025D00090935C0580935B0588EC90E090935E059A
:1025E00080935D0589EC90E09093600580935F0592
:1025F0008AEC90E090936205809361058EEC90E008
:10260000909364058093630510936505B093660508
:10261000A0936705F0936805E093690510926E0535
:1026200010926D0520936F053093700540937105EE
:102630005093720570936C0560936B0587E194E08D
:1026400090937805809377058BE594E090937A05D5
:102650008093790585ED90E090937C0580937B05D0
:1026600084ED90E090937E0580937D0580ED90E071
:102670009093800580937F0581ED90E09093820593
:102680008093810582ED90E090938405809383058B
:1026900086ED90E0909386058093850510938705DD
:1026A000B0938805A0938905F0938A05E0938B0584
:1026B0001092900510928F0520939105309392050A
:1026C000409393055093940570938E0560938D0508
:1026D0008FE994E090939A058093990583EE94E0B6
:1026E00090939C0580939B0585E391E090939E05D4
:1026F00080939D0584E391E09093A00580939F05CE
:1027000080E391E09093A2058093A10581E391E09D
:102710009093A4058093A30582E391E09093A6058E
:102720008093A50586E391E09093A8058093A70583
:102730001093A905B093AA05A093AB05F093AC053F
:10274000E093AD051F910895CF92DF92EF92FF9233
:102750000F931F93CF93DF937C016B018A01C0E03D
:10276000D0E00FC0D6016D916D01D701ED91FC91C4
:102770000190F081E02DC7011995C80FD91F0150B4
:1027800010400115110571F7CE01DF91CF911F9116
:102790000F91FF90EF90DF90CF900895EF92FF920E
:1027A0000F931F93CF93DF937C018B01C0E0D0E0A8
:1027B000F8010F5F1F4F6491662359F0D701ED9127
:1027C000FC910190F081E02DC7011995C80FD91F28
:1027D000EFCFCE01DF91CF911F910F91FF90EF903E
:1027E0000895DC01ED91FC910190F081E02D1995A7
:1027F00008959C01DB01ED91FC910190F081E02DA9
:10280000CB01B90119950895EF92FF920F931F9391
:102810008C01DC01ED91FC910190F081E02D6DE0E7
:1028200019957C01D801ED91FC910190F081E02D8A
:10283000C8016AE019959C012E0D3F1DC9011F9129
:102840000F91FF90EF900895EF92FF920F931F93D7
:102850007C010E94CE138C01C7010E9404149C01CC
:10286000200F311FC9011F910F91FF90EF90089524
:10287000EF92FF920F931F937C01DC01ED91FC918D
:102880000190F081E02D19958C01C7010E9404147C
:10289000080F191FC8011F910F91FF90EF90089525
:1028A000EF92FF920F931F937C01DB01ED91FC915E
:1028B0000190F081E02DCB01B70119958C01C70182
:1028C0000E940414080F191FC8011F910F91FF9057
:1028D000EF900895CF93DF93EC016115710519F422
:1028E00020E030E00FC0DB010D900020E9F71197E8
:1028F000A61BB70BE881F9810280F381E02DAD01C1
:1029000019959C01C901DF91CF9108954F925F9273
:102910007F928F929F92AF92BF92CF92DF92EF926F
:10292000FF920F931F93DF93CF93CDB7DEB7A1979D
:102930000FB6F894DEBF0FBECDBF2C01742ECB01B5
:10294000223008F42AE019A231E2C32ED12CCC0E99
:10295000DD1E822E9924AA24BB24672D752FA50184
:1029600094010E94D92679018A01C801B701A50105
:1029700094010E949326472D461B0894C108D10854
:102980004A3014F4405D01C0495CF6014083E11413
:10299000F1040105110521F07E2C5F2DC801DDCF6A
:1029A000C201B6010E946A14A1960FB6F894DEBF68
:1029B0000FBECDBFCF91DF911F910F91FF90EF9090
:1029C000DF90CF90BF90AF909F908F907F905F905F
:1029D0004F900895DC012115310541F4ED91FC91F2
:1029E0000190F081E02D642F199508950E948614BE
:1029F0000895EF92FF920F931F937C010E94EA14B7
:102A00008C01C7010E9404149C01200F311FC901D1
:102A10001F910F91FF90EF900895EF92FF920F9307
:102A20001F939A017B0100E010E0B801A7010E940A
:102A3000EA141F910F91FF90EF900895CF92DF92CB
:102A4000EF92FF920F931F936C017B019A0100E0BC
:102A500010E0B801A7010E94EA148C01C6010E948F
:102A60000414080F191FC8011F910F91FF90EF90D8
:102A7000DF90CF900895EF92FF920F931F939A01EA
:102A8000E62EFF2400E010E0B801A7010E94EA143E
:102A90001F910F91FF90EF900895CF92DF92EF92E8
:102AA000FF920F931F936C01E62E9A01FF2400E022
:102AB00010E0B801A7010E94EA148C01C6010E942F
:102AC0000414080F191FC8011F910F91FF90EF9078
:102AD000DF90CF900895CF92DF92EF92FF920F9305
:102AE0001F93CF93DF93EC016A017B012115310520
:102AF00041F4E881F9810190F081E02D642F19956E
:102B00001FC02A303105D1F477FF17C0E881F98161
:102B10000190F081E02D6DE219958C014427552735
:102B2000BA014C195D096E097F09CE012AE00E94A5
:102B300086149801280F391F04C02AE00E948614C9
:102B40009C01C901DF91CF911F910F91FF90EF90F0
:102B5000DF90CF900895EF92FF920F931F937C0127
:102B60000E946B158C01C7010E9404149C01200F68
:102B7000311FC9011F910F91FF90EF900895EF92BF
:102B8000FF920F931F937B019A010027F7FC00959A
:102B9000102FB801A7010E946B151F910F91FF9094
:102BA000EF900895CF92DF92EF92FF920F931F93D1
:102BB0006C017B019A010027F7FC0095102FB801EA
:102BC000A7010E946B158C01C6010E940414080F16
:102BD000191FC8011F910F91FF90EF90DF90CF90C8
:102BE00008950E946A1408957F928F929F92AF92E7
:102BF000BF92CF92DF92EF92FF920F931F93CF93EA
:102C0000DF934C017A018B01722ECB01BA01A8012E
:102C100097010E948C26882321F0C40163E372E0AF
:102C200021C0C0E0D0E057016801E894D7F8C601A0
:102C3000B5012FEF3FEF4FE75FE70E948C26882317
:102C400051F4C601B5012FEF3FEF4FE75FE70E9458
:102C5000D624181614F0C1E0D0E0219739F0C40151
:102C600067E372E00E946A14EC0193C0C801B701E7
:102C70002FEF3FEF4FE75FE40E942526181654F030
:102C8000C801B7012FEF3FEF4FE75FEC0E94D6245A
:102C9000882324F4C4016BE372E0E4CFC801B701D8
:102CA00020E030E040E050E00E94D62487FD03C0E1
:102CB000C0E0D0E00EC0D401ED91FC910190F08114
:102CC000E02DC4016DE21995EC0117FB109517F981
:102CD000109520E030E040E05FE3DD240BC0CA0146
:102CE000B90120E030E040E251E40E94DA249B0187
:102CF000AC01D394D71498F3C801B7010E94722491
:102D00005B016C010E9447257B018C01C401B80165
:102D1000A7012AE030E00E94EA14C80FD91F7720EB
:102D200039F0C4016FE372E00E946A14C80FD91F22
:102D3000C801B7010E9473259B01AC01C601B50112
:102D40000E94712424C020E030E040E251E40E945F
:102D500029267B018C010E9442255B016C01CC2459
:102D6000B7FCC094DC2CC401B601A5012AE030E018
:102D70000E946B15C80FD91FC601B5010E947525A9
:102D80009B01AC01C801B7010E9471247A9477209D
:102D9000D1F6CE01DF91CF911F910F91FF90EF906F
:102DA000DF90CF90BF90AF909F908F907F900895CD
:102DB0000E94F4150895EF92FF920F931F937C01E8
:102DC0000E94F4158C01C7010E940414080F191FFA
:102DD000C8011F910F91FF90EF900895EF92FF921D
:102DE0000F931F937C010E946A148C01C7010E94FB
:102DF0000414080F191FC8011F910F91FF90EF9045
:102E00000895AF92BF92CF92DF92EF92FF920F930D
:102E10001F93CF93DF935C016B01EE24FF24C0E08E
:102E2000D0E010C0D501ED91FC9100811181C60167
:102E3000BE010E941418682FC501F8011995E80E0B
:102E4000F91E2196F60184819581C817D90750F3A0
:102E5000C701DF91CF911F910F91FF90EF90DF900D
:102E6000CF90BF90AF900895EF92FF920F931F9372
:102E70007C010E9401178C01C7010E9404149C016F
:102E8000200F311FC9011F910F91FF90EF900895FE
:102E90002F923F924F925F926F927F928F929F926A
:102EA000AF92BF92CF92DF92EF92FF920F931F9358
:102EB000DF93CF93CDB7DEB73B014C0119012A0157
:102EC0006E897F89888D998D6A197B098C099D0986
:102ED000621A730A840A950AA40193010E94932638
:102EE000E218F30804091509A80197010E94FB26BE
:102EF0002A0D3B1D4C1D5D1DB901CA01CF91DF910B
:102F00001F910F91FF90EF90DF90CF90BF90AF9007
:102F10009F908F907F906F905F904F903F902F90F9
:102F20000895089570E0382F20E0622B732BCB01B9
:102F30000895EF92FF920F931F937B018C0161150F
:102F400071058105910529F420E030E040E050E072
:102F50000BC00E948F05A80197010E94FB26AC01BF
:102F6000CB01DA019C01AD01B901CA011F910F919A
:102F7000FF90EF900895EF92FF920F931F937B01C4
:102F80008C01621773078407950764F4261B370BBF
:102F9000480B590BCA01B9010E949917E60EF71E9A
:102FA000081F191FB701C8011F910F91FF90EF90E3
:102FB0000895009729F0BC0180E090E00E949405FC
:102FC0000895FC01848195816817790748F4019080
:102FD000F081E02D309721F0E60FF71F80810895F2
:102FE00080E00895FC01848195816817790730F4A9
:102FF0000190F081E02DE60FF71F40830895FC015A
:103000009B01848195816817790728F4608171811B
:103010006115710529F41092AF056FEA75E002C0E1
:10302000620F731FCB010895FC018481958168179D
:10303000790748F40190F081E02D309721F0E60FF8
:10304000F71F8081089580E00895FC010190F081D0
:10305000E02D309729F40895861709F440833196BE
:1030600080818823C9F70895FC01808191810097B0
:1030700029F420E030E040E050E004C00E949D05CB
:103080009B01AC01B901CA010895CF92DF92EF9282
:10309000FF920F931F93CF93DF936C01DC01ED90B0
:1030A000FC901197E114F10409F441C01496CD91FC
:1030B000DC9115972097D9F1870102C00F5F1F4F50
:1030C000F8018081992787FD90950E945924892BCA
:1030D000A9F72197CE0DDF1D01C02197888199277F
:1030E00087FD90950E945924892B19F0C017D107AC
:1030F000A0F7FE013196E01BF10BD6011596FC936B
:10310000EE9314972D913C912017310728F4C901B3
:10311000B801AF010E94AA06D601ED91FC9111976A
:1031200014968D919C911597E80FF91F1082DF91ED
:10313000CF911F910F91FF90EF90DF90CF90089566
:10314000CF93DF93FC01C081D181209739F409C06E
:10315000992787FD90950E94692489938881882307
:10316000B9F7DF91CF910895CF93DF93FC01C08130
:10317000D181209739F409C0992787FD90950E9445
:103180006124899388818823B9F7DF91CF910895CD
:10319000EF92FF920F931F93CF93DF93FC01DB011C
:1031A0008617970739F12481358114968D919C916A
:1031B00015972817390701F5232BE1F0E080F180FE
:1031C000CD91DC9113C0992787FD90950E946124D1
:1031D0008C018881992787FD90950E9461240817AA
:1031E000190751F40894E11CF11C2196F701808124
:1031F000882349F781E001C080E0DF91CF911F91E2
:103200000F91FF90EF900895AF92BF92CF92DF920F
:10321000EF92FF920F931F93CF93DF93FC015B011B
:103220007A01DB0114962D913C91159721153105FA
:1032300059F184819581009739F18217930720F124
:103240004817590720F07C010894E108F108008133
:103250001181C801CFEFDFEF6801CE0CDF1C10C079
:10326000F501608171810E9413079C01009771F044
:10327000801B910BE816F90608F0EC01C9010196D4
:10328000C816D90668F702C0CFEFDFEFCE01DF9195
:10329000CF911F910F91FF90EF90DF90CF90BF9053
:1032A000AF900895FC01DB014481558114968D9106
:1032B0009C911597481B590BCF010E940419089542
:1032C000CF93DF93FC01DB01848195814817590777
:1032D00060F4C081D1816D917C91CE01840F951FE6
:1032E0000E9413079C01009719F42FEF3FEF02C0D3
:1032F0002C1B3D0BC901DF91CF91089540E050E0B8
:103300000E9460190895DF92EF92FF920F931F932E
:10331000CF93DF93EC018C819D8148175907C8F446
:103320007A010894E11CF11CE881F981EE0DFF1D82
:10333000D080108208811981772767FD7095C801B8
:103340000E9408079C010E0D1F1DF801D0820097F6
:1033500019F4EFEFFFEF05C088819981F901E81BAF
:10336000F90BCF01DF91CF911F910F91FF90EF905B
:10337000DF900895FC0144815581415050400E94E6
:1033800083190895CF93DF93FC01848195814817B9
:10339000590768F4C081D181772767FD7095CE0108
:1033A000840F951F0E94C5069C01009719F42FEF0A
:1033B0003FEF02C02C1B3D0BC901DF91CF91089557
:1033C00040E050E00E94C21908950F931F93CF93DD
:1033D000DF93FC018B0141155105F9F06115710571
:1033E000E1F0848195812817390718F0FB011082DC
:1033F00014C041505040EC01C21BD30B4C175D0769
:1034000008F4EA0160817181620F731FC801AE0187
:103410000E94EE06C00FD11F1882DF91CF911F913D
:103420000F910895FC01DB012481358114964D91A3
:103430005C91159724173507A8F08081918100973A
:1034400089F06D917C916115710561F0241B350B3C
:10345000820F931F0E94D0069C0180E0232B19F459
:1034600081E0089580E00895DC01FB0114968D91C0
:103470009C911597892B31F461157105A9F090E0A5
:10348000808108C00D90BC91A02D6115710529F4B3
:1034900090E08C91882349F407C0CD010E94D006AA
:1034A0009C0190E0232B09F491E0892F0895CF939C
:1034B000DF939C01FB01EC01A881B981109729F0F1
:1034C0006081718161157105D1F4C081D18120972E
:1034D00059F084819581892B39F0888190E02227E9
:1034E0003327281B390B12C0109771F0F901848122
:1034F0009581892B49F08C91282F30E007C0CD01B0
:103500000E94D0069C0102C020E030E0C901DF919A
:10351000CF9108950E94571A892F8095881F882778
:10352000881F08950E94571A20E0181619060CF0FB
:1035300021E0822F08950E94571A20E018161906DC
:103540000CF421E0822F08950E94571A892F881FBA
:103550008827881F0895FC01DB012481358114969A
:103560008D919C9115972817390711F020E007C01D
:10357000CF010E94571A20E0892B09F421E0822F05
:103580000895FC01DB0114962D913C9115978481DF
:103590009581821B930B84179507A0F08081918100
:1035A000009781F06D917C916115710559F0840F40
:1035B000951FA9010E94E0069C0180E0232B19F4CD
:1035C00081E0089580E00895FC01DB0124813581CC
:1035D00014968D919C9115972817390710F480E067
:1035E0000895CF0140E050E00E94C11A08950F9362
:1035F0001F93CF93DF93EC018B016F5F7F4F888127
:1036000099810E947823009711F480E005C0998386
:1036100088831B830A8381E0DF91CF911F910F91F3
:1036200008952F923F924F925F926F927F928F9266
:103630009F92AF92BF92CF92DF92EF92FF920F9341
:103640001F93CF93DF935C012B014A01DC01149699
:103650000D911C9115970115110509F4D4C0FB01BA
:10366000C480D580C114D10409F4CDC0DA01149608
:103670006D907C9015976C187D08FC01E080F180BE
:103680006114710491F01BC0D4016C9111967C916E
:10369000119714964D915C9115978C2F0E94AA0654
:1036A000F401E480F580EC0EFD1ED2016D917C9159
:1036B000C7010E941307EC01009731F7A4C077FE01
:1036C00002C067012EC0FB0120803180E8013CC0B0
:1036D0008E010E191F09C601B701A8010E94AA0692
:1036E0000C0D1D1DD4016C9111967C9111971496AF
:1036F0004D915C911597C8010E94AA06F401C480FF
:10370000D580C00ED11ED2011496ED90FC90159775
:10371000EC0EFD1EF50184819581860D971D958324
:103720008483D2016D917C91C7010E941307EC0143
:10373000009771F6C601B7010E94D90664C07B01EB
:10374000EC0CFD1CC60DD71DC701B1010E9413076B
:10375000BC010097A1F7C017D10709F454C0F501C7
:10376000828193818C179D0708F044C0C501BE017A
:103770000E94F71A8823F1F546C0C501B201A901DC
:103780000E940419EC0197FD3EC0D5016D917C911A
:103790001197F201848195818C0F9D1F680F791F0D
:1037A00014964D915C911597481B590BCB01860DD2
:1037B000971D0E94B306D50114968D919C91159783
:1037C000860D971D15969C938E931497ED91FC9101
:1037D0001197E80FF91F10822D913C912C0F3D1F7E
:1037E000F4016081718144815581C9010E94AA065A
:1037F0009E0105C0D50114962D913C91159721503D
:10380000304037FFBACFDF91CF911F910F91FF90DA
:10381000EF90DF90CF90BF90AF909F908F907F9070
:103820006F905F904F903F902F900895CF93DF93CC
:10383000EC0188819981892B29F08A819B818617E7
:10384000970760F4CE010E94F71A882341F08C811B
:103850009D81892B19F4E881F981108281E0DF9143
:10386000CF910895EF92FF920F931F93CF93DF9321
:10387000EC017B016C817D81E114F104C1F0411503
:10388000510599F08A01060F171FB8010E94161CF6
:10389000882369F0888199812C813D81820F931F53
:1038A000B7010E94D9061D830C8381E001C080E02E
:1038B000DF91CF911F910F91FF90EF900895EF92BC
:1038C000FF920F931F93DF93CF93CDB7DEB72B9764
:1038D0000FB6F894DEBF0FBECDBF7C01CB01BA019D
:1038E0008E010F5F1F4FA8012AE030E00E9497076A
:1038F000F80101900020E9F73197E01BF10BC701B7
:10390000B801AF010E94321C2B960FB6F894DEBFAF
:103910000FBECDBFCF91DF911F910F91FF90EF9020
:103920000895EF92FF920F931F93DF93CF93CDB73C
:10393000DEB72C970FB6F894DEBF0FBECDBF7C016B
:10394000CB01BA018E010F5F1F4FA8012AE030E0C2
:103950000E944E07F80101900020E9F73197E01B23
:10396000F10BC701B801AF010E94321C2C960FB6B3
:10397000F894DEBF0FBECDBFCF91DF911F910F91A5
:10398000FF90EF900895EF92FF920F931F93DF93B4
:10399000CF9300D000D0CDB7DEB77C01CB018E0134
:1039A0000F5F1F4FB8014AE050E00E94BC07F801CA
:1039B00001900020E9F73197E01BF10BC701B80136
:1039C000AF010E94321C26960FB6F894DEBF0FBEE0
:1039D000CDBFCF91DF911F910F91FF90EF90089590
:1039E000EF92FF920F931F93DF93CF93CDB7DEB784
:1039F00027970FB6F894DEBF0FBECDBF7C01CB0179
:103A00008E010F5F1F4FB8014AE050E00E942D0762
:103A1000F80101900020E9F73197E01BF10BC70195
:103A2000B801AF010E94321C27960FB6F894DEBF92
:103A30000FBECDBFCF91DF911F910F91FF90EF90FF
:103A40000895EF92FF920F931F93DF93CF9300D0CF
:103A50000F92CDB7DEB77C01862F90E08E010F5F0D
:103A60001F4FB8014AE050E00E942D07F801019075
:103A70000020E9F73197E01BF10BC701B801AF0156
:103A80000E94321C0F900F900F900F90CF91DF91FA
:103A90001F910F91FF90EF900895DF93CF930F92B6
:103AA0000F92CDB7DEB769831A82BE016F5F7F4F79
:103AB00041E050E00E94321C0F900F90CF91DF91B7
:103AC00008956115710511F480E00895DB010D90F2
:103AD0000020E9F71197A61BB70BAD010E94321C1D
:103AE0000895FB0160817181448155810E94321CDF
:103AF0000895CF93DF93EC0188819981009711F0AD
:103B00000E94E022198218821D821C821B821A8266
:103B1000DF91CF9108950F931F93182F092F0E94C3
:103B20005F1C882321F4812F902F0E94791D812F03
:103B3000902F1F910F9108950F931F93182F092F06
:103B40000E94911C882321F4812F902F0E94791DBF
:103B5000812F902F1F910F9108950F931F93182F6E
:103B6000092F0E94C31C882321F4812F902F0E94CB
:103B7000791D812F902F1F910F9108950F931F93FF
:103B8000182F092F0E94F01C882321F4812F902FD9
:103B90000E94791D812F902F1F910F9108950F93EF
:103BA0001F93182F092F0E94211D882321F4812F94
:103BB000902F0E94791D812F902F1F910F910895B2
:103BC0000F931F93182F092F0E944D1D882321F456
:103BD000812F902F0E94791D812F902F1F910F917F
:103BE00008950F931F93182F092F6115710561F028
:103BF000DB010D900020E9F71197A61BB70BAD0173
:103C00000E94321C882321F4812F902F0E94791D5D
:103C1000812F902F1F910F9108950F931F93182FAD
:103C2000092FFB0160817181448155810E94321C02
:103C3000882321F4812F902F0E94791D812F902FAE
:103C40001F910F910895EF92FF920F931F93CF93BF
:103C5000DF93EC017B018A01BA010E94161C8823C4
:103C600021F4CE010E94791D07C01D830C83888139
:103C70009981B7010E94D906CE01DF91CF911F91A2
:103C80000F91FF90EF900895CF93DF93EC0119828D
:103C900018821B821A821D821C821E826115710588
:103CA00051F0DB010D900020E9F71197A61BB70B2F
:103CB000AD010E94231EDF91CF910895CF93DF9332
:103CC000EC01198218821B821A821D821C821E82BC
:103CD0006115710551F0DB010D900020E9F7119796
:103CE000A61BB70BAD010E94231EDF91CF91089553
:103CF0000F931F93182F092F6115710559F0DB01E0
:103D00000D900020E9F71197A61BB70BAD010E949B
:103D1000231E02C00E94791D812F902F1F910F91A9
:103D20000895EF92FF920F931F93DF93CF93CDB738
:103D3000DEB7A1970FB6F894DEBF0FBECDBF8C01E2
:103D4000FC01118210821382128215821482168263
:103D5000CB01BA017E010894E11CF11CA70130E0FF
:103D60000E949707C801B7010E94781EA1960FB65E
:103D7000F894DEBF0FBECDBFCF91DF911F910F91A1
:103D8000FF90EF900895EF92FF920F931F93DF93B0
:103D9000CF93CDB7DEB7A1970FB6F894DEBF0FBEB5
:103DA000CDBF8C01FC011182108213821282158218
:103DB00014821682CB01BA017E010894E11CF11C29
:103DC000A70130E00E949707C801B7010E94781E42
:103DD000A1960FB6F894DEBF0FBECDBFCF91DF9195
:103DE0001F910F91FF90EF900895EF92FF920F9324
:103DF0001F93DF93CF93CDB7DEB7A2970FB6F8949A
:103E0000DEBF0FBECDBF8C01FC0111821082138278
:103E10001282158214821682CB01BA017E010894A7
:103E2000E11CF11CA70130E00E944E07C801B70158
:103E30000E94781EA2960FB6F894DEBF0FBECDBFCB
:103E4000CF91DF911F910F91FF90EF900895EF9226
:103E5000FF920F931F93DF93CF93CDB7DEB7A29757
:103E60000FB6F894DEBF0FBECDBF8C01FC011182EE
:103E7000108213821282158214821682CB01BA013B
:103E80007E010894E11CF11CA70130E00E944E075E
:103E9000C801B7010E94781EA2960FB6F894DEBF43
:103EA0000FBECDBFCF91DF911F910F91FF90EF908B
:103EB0000895EF92FF920F931F93DF93CF93CDB7A7
:103EC000DEB761970FB6F894DEBF0FBECDBF8C0191
:103ED000CB01F801118210821382128215821482A2
:103EE00016827E010894E11CF11CB70150E00E948B
:103EF000BC07C801B7010E94781E61960FB6F894FE
:103F0000DEBF0FBECDBFCF91DF911F910F91FF900C
:103F1000EF900895EF92FF920F931F93DF93CF934B
:103F2000CDB7DEB761970FB6F894DEBF0FBECDBF39
:103F30008C01CB01F801118210821382128215824A
:103F4000148216827E010894E11CF11CB70150E036
:103F50000E94BC07C801B7010E94781E61960FB687
:103F6000F894DEBF0FBECDBFCF91DF911F910F91AF
:103F7000FF90EF900895EF92FF920F931F93DF93BE
:103F8000CF93CDB7DEB762970FB6F894DEBF0FBE02
:103F9000CDBF8C01CB01F8011182108213821282F5
:103FA0001582148216827E010894E11CF11CB7016F
:103FB00050E00E942D07C801B7010E94781E62964A
:103FC0000FB6F894DEBF0FBECDBFCF91DF911F912A
:103FD0000F91FF90EF900895EF92FF920F931F9330
:103FE000DF93CF93CDB7DEB762970FB6F894DEBFFD
:103FF0000FBECDBF8C01CB01F8011182108213825C
:1040000012821582148216827E010894E11CF11C32
:10401000B70150E00E942D07C801B7010E94781E29
:1040200062960FB6F894DEBF0FBECDBFCF91DF9181
:104030001F910F91FF90EF900895EF92FF920F93D1
:104040001F93DF93CF93CDB7DEB729970FB6F894C0
:10405000DEBF0FBECDBF8C01862FF801118210820A
:104060001382128215821482168290E07E010894D7
:10407000E11CF11CB70150E00E94BC07C801B70168
:104080000E94781E29960FB6F894DEBF0FBECDBFF2
:10409000CF91DF911F910F91FF90EF900895EF92D4
:1040A000FF920F931F93DF93CF93CDB7DEB729977E
:1040B0000FB6F894DEBF0FBECDBF8C01862FF8017E
:1040C000118210821382128215821482168290E06D
:1040D0007E010894E11CF11CB70150E00E94BC076E
:1040E000C801B7010E94781E29960FB6F894DEBF6A
:1040F0000FBECDBFCF91DF911F910F91FF90EF9039
:104100000895DF93CF930F920F92CDB7DEB7FC01E6
:1041100011821082138212821582148216826983A0
:104120001A82BE016F5F7F4F0E94781E0F900F9022
:10413000CF91DF910895DF93CF930F920F92CDB778
:10414000DEB7FC0111821082138212821582148262
:10415000168269831A82BE016F5F7F4F0E94781EAC
:104160000F900F90CF91DF910895BF92CF92DF9281
:10417000EF92FF920F931F93CF93DF93082FB92EE7
:104180006B017A01E9012417350710F4EA0179017E
:10419000802F9B2D61E472E00E94441ED60114968C
:1041A0008D919C9115978E159F05D0F08C179D07CA
:1041B00008F4EC01D601ED91FC911197EC0FFD1F75
:1041C000108110826D917C916E0D7F1D802F9B2D33
:1041D0000E94781ED601ED91FC91EC0FFD1F10831B
:1041E000802F9B2DDF91CF911F910F91FF90EF902A
:1041F000DF90CF90BF9008950F931F938C01FB0128
:10420000248135810E94B520C8011F910F91089526
:10421000CF93DF93EC01FB018617970761F0608174
:1042200071816115710529F0448155810E94231E19
:1042300002C00E94791DCE01DF91CF910895FC014B
:1042400011821082138212821582148216820E94B9
:1042500008210895FC0111821082138212821582B6
:10426000148216820E9408210895FC0180819181A8
:104270000E94E0220895FC01808191810E94E02249
:104280000895CF93DF930E94ED0A0E945309CCE773
:10429000DEE00E9490082097E1F30E947C0EF9CFA7
:1042A000FC0120E030E08081882311F421E030E03F
:1042B000C9010895FC0181E080830895089508955F
:1042C0000E94E02208950E94E02208950E94432265
:1042D00008950E94432208950F931F938B019C0120
:1042E000809170008E7F809370008091B0008C7FF1
:1042F0008093B0008091B100877F8093B10080915E
:10430000B6008F7D8093B600809170008D7F809382
:1043100070008091B10084608093B1008091B10001
:104320008C7F8093B10086E090E09093BC058093F1
:10433000BB05011511052105310569F481E090E007
:10434000A0E0B0E08093B0059093B105A093B205D2
:10435000B093B30508C00093B0051093B105209346
:10436000B2053093B3055093B5054093B4051F9142
:104370000F9108951092B6051092B7051092B805E6
:104380001092B9051092BA058091BB059091BC05B9
:104390008093B200E0E7F0E080818160808308953F
:1043A000E0E7F0E080818E7F808308958091B605FC
:1043B0009091B705A091B805B091B9050196A11DDE
:1043C000B11D8093B6059093B705A093B805B0933F
:1043D000B9052091B6053091B7054091B8055091C7
:1043E000B9058091B0059091B105A091B205B09149
:1043F000B305281739074A075B07B0F08091BA0563
:10440000882391F481E08093BA051092B60510924A
:10441000B7051092B8051092B905E091B405F09176
:10442000B50519951092BA0508951F920F920FB60F
:104430000F920BB60F9211242F933F934F935F93DC
:104440006F937F938F939F93AF93BF93EF93FF935C
:104450008091BB059091BC058093B2000E94D6214B
:10446000FF91EF91BF91AF919F918F917F916F914C
:104470005F914F913F912F910F900BBE0F900FBE08
:104480000F901F9018950F931F93CF93DF93BC014C
:104490008230910510F462E070E0E091BF05F09188
:1044A000C005A0E0B0E040E050E024C080819181F0
:1044B00086179707D0F08617970771F4828193814A
:1044C000109729F013969C938E9312972CC090937B
:1044D000C0058093BF0527C04115510519F0841709
:1044E000950718F4EF018D01AC01DF018281938102
:1044F0009C01F9013097D1F641155105F9F0CA0137
:10450000861B970B8430910580F48A819B8101156D
:10451000110521F0F8019383828304C09093C005B4
:104520008093BF05FE01329645C0FE01E80FF91FDA
:10453000619371930297998388833CC08091BD05F4
:104540009091BE05892B41F48091A1029091A20225
:104550009093BE058093BD054091A3025091A402A3
:104560004115510541F44DB75EB780919F0290917E
:10457000A002481B590B2091BD053091BE052417A0
:104580003507B0F4CA01821B930B8617970780F09A
:10459000AB014E5F5F4F8417950750F0420F531FDA
:1045A0005093BE054093BD05F9016193719302C01C
:1045B000E0E0F0E0CF01DF91CF911F910F910895DE
:1045C000CF93DF939C01009709F48FC0EC012297F1
:1045D0001B821A826091BF057091C005611571053B
:1045E00081F488819981820F931F2091BD053091BC
:1045F000BE052817390739F5D093BE05C093BD0510
:1046000074C0DB0140E050E0AC17BD0708F1BB838C
:10461000AA83FE0121913191E20FF31FAE17BF076C
:1046200079F48D919C911197280F391F2E5F3F4F80
:104630003983288312968D919C9113979B838A834B
:104640004115510571F4D093C005C093BF054DC00D
:1046500012968D919C911397AD01009711F0DC019A
:10466000D3CFDA011396DC93CE931297FA012191FE
:104670003191E20FF31FCE17DF0769F4888199812A
:10468000280F391F2E5F3F4FFA01318320838A8123
:104690009B8193838283E0E0F0E0DB0112968D91B1
:1046A0009C911397009719F0BC01FD01F6CFAB0167
:1046B0004E5F5F4FDB018D919C91840F951F209180
:1046C000BD053091BE052817390779F4309729F4D4
:1046D0001092C0051092BF0502C013821282425090
:1046E00050405093BE054093BD05DF91CF91089592
:1046F0006F927F928F929F92AF92BF92CF92DF92F2
:10470000EF92FF920F931F93CF93DF938C0100974B
:1047100029F4CB010E9443228C01BBC08EEFE82E0E
:104720008FEFF82EE00EF11E4801860E971E8E14B4
:104730009F0408F4ACC0D7014D915C9111974617C6
:104740005707B8F04530510508F4A3C0CA010497D3
:104750008617970708F49DC042505040461B570BE0
:10476000F401419351936D937C93CF010E94E02219
:1047700090C05B01A41AB50A3801640E751EA091A1
:10478000BF05B091C005CC24DD24E0E0F0E047C0D7
:10479000A615B705A9F5CD91DC911197CE0102962A
:1047A0008A159B0568F1CE018A199B09029612961B
:1047B0002C91129713963C91059758F0F40122839F
:1047C0003383CA19DB09D183C083D7016D937C93EE
:1047D00009C04E5F5F4F4C0F5D1FF701518340834F
:1047E000C901FC01C114D10431F0D6011396FC9328
:1047F000EE9312974EC0F093C005E093BF0549C0F9
:104800008D919C911197E817F90708F4FC016D014F
:1048100012968C91129713969C919C01D901109736
:1048200009F0B6CF8091BD059091BE05861597051C
:10483000E9F4E617F707D0F42091A3023091A4021F
:104840002115310541F42DB73EB780919F0290911B
:10485000A002281B390B82169306C8F49092BE055D
:104860008092BD05F7017183608313C0CB010E9464
:104870004322EC01009759F0D7014D915C91B801AA
:104880000E94AA06C8010E94E0228E0102C000E038
:1048900010E0C801DF91CF911F910F91FF90EF9031
:1048A000DF90CF90BF90AF909F908F907F906F9050
:1048B0000895911135C2803219F089508550D0F792
:1048C00008959111089581548A5108F4805E855AA3
:1048D00008959111089581568A5108F4805285589F
:1048E00008955058BB27AA270ED075C166D130F065
:1048F0006BD120F031F49F3F11F41EF45BC10EF434
:10490000E095E7FB51C1E92F77D180F3BA17620731
:1049100073078407950718F071F49EF58FC10EF4A4
:10492000E0950B2EBA2FA02D0B01B90190010C01BF
:10493000CA01A0011124FF27591B99F0593F50F4D7
:10494000503E68F11A16F040A22F232F342F44272F
:10495000585FF3CF469537952795A795F040539527
:10496000C9F77EF41F16BA0B620B730B840BBAF0F7
:104970009150A1F0FF0FBB1F661F771F881FC2F762
:104980000EC0BA0F621F731F841F48F48795779576
:104990006795B795F7959E3F08F0B3CF9395880F2D
:1049A00008F09927EE0F979587950895D9D008F4C8
:1049B00081E008950CD00FC107D140F0FED030F057
:1049C00021F45F3F19F0F0C0511139C1F3C014D187
:1049D00098F39923C9F35523B1F3951B550BBB27C6
:1049E000AA2762177307840738F09F5F5F4F220F73
:1049F000331F441FAA1FA9F333D00E2E3AF0E0E86C
:104A000030D091505040E695001CCAF729D0FE2FB7
:104A100027D0660F771F881FBB1F26173707480749
:104A2000AB07B0E809F0BB0B802DBF01FF279358FF
:104A30005F4F2AF09E3F510568F0B6C000C15F3F4E
:104A4000ECF3983EDCF3869577956795B795F795E7
:104A50009F5FC9F7880F911D9695879597F90895DF
:104A6000E1E0660F771F881FBB1F6217730784077B
:104A7000BA0720F0621B730B840BBA0BEE1F88F78A
:104A8000E095089504D06894B111D9C00895BCD0C0
:104A900088F09F5790F0B92F9927B751A0F0D1F027
:104AA000660F771F881F991F1AF0BA95C9F712C0B1
:104AB000B13081F0C3D0B1E00895C0C0672F782F26
:104AC0008827B85F39F0B93FCCF38695779567951D
:104AD000B395D9F73EF490958095709561957F4F89
:104AE0008F4F9F4F0895E89409C097FB3EF490952F
:104AF0008095709561957F4F8F4F9F4F9923A9F0B7
:104B0000F92F96E9BB279395F69587957795679545
:104B1000B795F111F8CFFAF4BB0F11F460FF1BC089
:104B20006F5F7F4F8F4F9F4F16C0882311F096E91C
:104B300011C0772321F09EE8872F762F05C06623CA
:104B400071F096E8862F70E060E02AF09A95660F83
:104B5000771F881FDAF7880F9695879597F908953C
:104B6000990F0008550FAA0BE0E8FEEF161617067E
:104B7000E807F907C0F012161306E407F50798F0E6
:104B8000621B730B840B950B39F40A2661F0232BFF
:104B9000242B252B21F408950A2609F4A140A6957B
:104BA0008FEF811D811D089597F99F6780E870E060
:104BB00060E008959FEF80EC089500240A94161693
:104BC000170618060906089500240A9412161306FB
:104BD000140605060895092E0394000C11F4882389
:104BE00052F0BB0F40F4BF2B11F460FF04C06F5FA5
:104BF0007F4F8F4F9F4F089557FD9058440F551F7B
:104C000059F05F3F71F04795880F97FB991F61F04E
:104C10009F3F79F087950895121613061406551FC5
:104C2000F2CF4695F1DF08C0161617061806991F31
:104C3000F1CF86957105610508940895E894BB2726
:104C400066277727CB0197F908958ADF08F48FEF5D
:104C500008950BD0C0CFB1DF28F0B6DF18F0952350
:104C600009F0A2CFA7CF1124EACFC6DFA0F3959F0A
:104C7000D1F3950F50E0551F629FF001729FBB2743
:104C8000F00DB11D639FAA27F00DB11DAA1F649FEF
:104C90006627B00DA11D661F829F2227B00DA11DA2
:104CA000621F739FB00DA11D621F839FA00D611D28
:104CB000221F749F3327A00D611D231F849F600D49
:104CC000211D822F762F6A2F11249F5750408AF082
:104CD000E1F088234AF0EE0FFF1FBB1F661F771F0E
:104CE000881F91505040A9F79E3F510570F05CCF4E
:104CF000A6CF5F3FECF3983EDCF3869577956795FA
:104D0000B795F795E7959F5FC1F7FE2B880F911D2B
:104D10009695879597F9089523DF880B990B089549
:104D2000992788270895629FD001739FF001829F81
:104D3000E00DF11D649FE00DF11D929FF00D839F2A
:104D4000F00D749FF00D659FF00D9927729FB00DC7
:104D5000E11DF91F639FB00DE11DF91FBD01CF01DA
:104D600011240895AA1BBB1B51E107C0AA1FBB1F3A
:104D7000A617B70710F0A61BB70B881F991F5A95E7
:104D8000A9F780959095BC01CD01089597FB092E58
:104D900007260AD077FD04D0E5DF06D000201AF4FC
:104DA000709561957F4F0895F6F7909581959F4F87
:104DB0000895A1E21A2EAA1BBB1BFD010DC0AA1F5C
:104DC000BB1FEE1FFF1FA217B307E407F50720F074
:104DD000A21BB30BE40BF50B661F771F881F991FEF
:104DE0001A9469F760957095809590959B01AC0138
:104DF000BD01CF01089597FB092E05260ED057FD62
:104E000004D0D7DF0AD0001C38F450954095309577
:104E100021953F4F4F4F5F4F0895F6F7909580953E
:104E2000709561957F4F8F4F9F4F08952F923F92BE
:104E30004F925F926F927F928F929F92AF92BF92AA
:104E4000CF92DF92EF92FF920F931F93CF93DF9356
:104E5000CDB7DEB7CA1BDB0B0FB6F894DEBF0FBEB3
:104E6000CDBF19942A88398848885F846E847D84F0
:104E70008C849B84AA84B984C884DF80EE80FD8002
:104E80000C811B81AA81B981CE0FD11D0FB6F89478
:104E9000DEBF0FBECDBFED010895EE0FFF1F0590E1
:0A4EA000F491E02D1994F894FFCF6F
:104EAA00535441544F522053504545443A20002010
:104EBA00535441544F5220564F4C543A20002052DA
:104ECA004F544F5220564F4C5420252E3266205BA9
:104EDA00565D006E616E00696E66006F7666002E22
:104EEA0000000100000008000100020003000400A5
:104EFA000500060007000100000000000000000095
:104F0A000100000001000000000000000100000094
:104F1A000100000001000000000000000000010084
:104F2A000100000000000000000001000000010074
:104F3A0000000100000000000000010000000180E4
:104F4A0000C1050000000000002C12A413C211F3D6
:104F5A0011D3111C12000000005F21A4135F215F0E
:0E4F6A00215F215F21000000005F21A41300E1
:00000001FF
